:1000000078C0000088C0000086C0000084C00000E6
:1000100082C0000080C000007EC000007CC00000E4
:100020007AC0000078C0000076C0000074C00000F4
:1000300072C0000070C000006EC000006CC0000004
:100040006AC0000038C4000066C0000064C0000040
:1000500062C0000060C000005EC000005CC0000024
:100060005AC0000058C0000056C0000054C0000034
:1000700052C0000050C000004EC000004CC0000044
:1000800075C4000048C0000046C0000044C0000025
:1000900042C0000040C000003EC000003CC0000064
:1000A0003AC0000038C0000036C0000034C0000074
:1000B00032C0000030C000002EC000002CC0000084
:1000C0002AC0000028C0000026C0000024C0000094
:1000D00022C0000020C000001EC000001CC00000A4
:1000E0001AC000006B031E032F034F033F035F037F
:1000F000980311241FBECFEFD1E2DEBFCDBF00E0D9
:100100000CBF24E1A0E0B2E001C01D92AC35B20703
:10011000E1F743D4A9C474CF0F921F922F923F925C
:100120004F925F926F927F928F929F92AF92BF9207
:10013000CF92DF92EF92FF920F931F932F933F93F3
:100140004F935F936F937F938F939F93AF93BF93DF
:10015000CF93DF93EF93FF930FB70F93FCB7FF930A
:10016000EDB7FEB7E0933A14F0933B14E091F81327
:10017000F091F913EDBFFEBFFF91FCBF0F910FBFD0
:10018000FF91EF91DF91CF91BF91AF919F918F91AF
:100190007F916F915F914F913F912F911F910F919F
:1001A000FF90EF90DF90CF90BF90AF909F908F9097
:1001B0007F906F905F904F903F902F901F900F9087
:1001C00018950F921F922F923F924F925F926F92CB
:1001D0007F928F929F92AF92BF92CF92DF92EF92D7
:1001E000FF920F931F932F933F934F935F936F93C0
:1001F0007F938F939F93AF93BF93CF93DF93EF93AF
:10020000FF930FB70F93FCB7FF93EDB7FEB7E093E3
:10021000F813F093F913E0913A14F0913B14EDBF09
:10022000FEBFFF91FCBF0F910FBFFF91EF91DF91D8
:10023000CF91BF91AF919F918F917F916F915F917E
:100240004F913F912F911F910F91FF90EF90DF9071
:10025000CF90BF90AF909F908F907F906F905F9066
:100260004F903F902F901F900F900895259A2D9AB0
:10027000DCD2FDCF259A15B8D8D2FDCF0F931F93AE
:1002800002E010E02AE030E044E650E060E070E098
:100290008AE391E0B1D202E310E02AE030E044E6E4
:1002A00050E060E070E086E391E0A6D203D01F91B9
:1002B0000F91089580910E0290910F02892B51F0B9
:1002C000F894E0911002F0911102E55FFE4F86E094
:1002D000808377CF0895EF92FF920F931F93CF9370
:1002E000DF931F921F92CDB7DEB79A8389837C017B
:1002F00004E0E00EF11CA0E0B1E0F7018D011192E5
:1003000001501040E1F7DC01AD5FBE4FEAE5F1E0DE
:10031000EC931197FC93FC01EF5FFE4F60833197E4
:10032000708331971082B397DC011396FC93EE93A0
:100330001297BD96718360833296108260910A0293
:1003400070910B02FC017183608389819A81FC01A9
:10035000EB5FFE4F518340833296318320834230DE
:10036000510509F06AC02091D4133091D5133D9600
:10037000318320832091D2133091D313329631836D
:1003800020832091F6133091F713DC01AE5EBE4F4F
:1003900011963C932E9320910C0230910D022F5F09
:1003A0003F4F30930D0220930C0220910A023091AE
:1003B0000B022F5F3F4F30930B0220930A021E97D0
:1003C00081E08C9380819181892B59F508C044E0AC
:1003D00052E062EB73E1CE010196F0D229C042E017
:1003E00052E06AE174E1CE010196E8D2E981FA8136
:1003F000DF01AE5EBE4F8D919C91EA5EFE4F208183
:100400003181820F931F9183808312C04130510547
:1004100041F440E052E06CE374E1CE010196CED2AB
:1004200007C046E052E066ED73E1CE010196C6D208
:10043000E981FA81808191811DC020910C02309167
:100440000D022F5F3F4F30930D0220930C0220913D
:100450000A0230910B022F5F3F4F30930B02209323
:100460000A02FC01EC5FFE4F81E0808343305105BE
:1004700069F6ADCF0F900F90DF91CF911F910F9143
:10048000FF90EF900895CF93DF93EC0180910C02E1
:1004900090910D02409721F180911603882371F00D
:1004A000A0E3B4E0E1E0F0E09C91992349F03196BB
:1004B000A65EBE4FE031F105B9F702C0E0E0F0E022
:1004C0009A01AB01BE01AAE1B1E0EA9FC001EB9F36
:1004D000900DFA9F900D11248E5E9D4FFCDE00C0A2
:1004E000DF91CF91089510920D0210920C0210929C
:1004F0000F0210920E0210920B0210920A02E2E119
:10050000F2E022EB33E18AE191E0DF01AC011D92E0
:1005100041505040E1F7DF01AC5FBE4F1C921182A9
:100520001082E65EFE4FE217F30779F7089581E047
:1005300090E09AD264E072E082EB93E16FD2909304
:10054000110280931002892B49F462E072E08AE183
:1005500094E164D290931102809310028091100272
:1005600090911102892B49F460E072E08CE394E1F0
:1005700055D29093110280931002809110029091B5
:100580001102892B49F466E072E086ED93E146D2D0
:100590009093110280931002E0911002F0911102E9
:1005A000309709F4C4DF828193819093F91380938B
:1005B000F813EC5FFE4F82E0808308951F93CF9382
:1005C000DF9380910E0290910F02892B09F0C1C038
:1005D00080910C0290910D02892B09F4BAC0F89415
:1005E00081E090E090930F0280930E02A3DF11E070
:1005F000E0911002F0911102DF01A55FBE4F1C9245
:10060000828193819093F9138093F81385DDC091D3
:100610001002D09111028091F8139091F9139B83ED
:100620008A83FE01E55FFE4FE081F0E0E730F105EF
:10063000F8F68827EE58FF4F8F4F0EC2FE01E95F94
:10064000FE4F408151813297608171813496808163
:10065000918119DFC45FDE4F99838883C9CFFE0182
:10066000E95FFE4F4081518132968081918163E044
:1006700070E009DFC45FDE4F99838883B9CFFE0144
:10068000E95FFE4F4081518132968081918162E025
:1006900070E0F9DEC45FDE4F99838883A9CFFE0145
:1006A000E95FFE4F4081518132968081918161E006
:1006B00070E0E9DEC45FDE4F9983888399CFFE0145
:1006C000EB5FFE4F80819181029719F4CC5FDE4F82
:1006D000188330DF8DCFFE01EC5FFE4F1083319623
:1006E00080819181039741F444E052E062EB73E131
:1006F00080E192E063D11AC0FE01EB5FFE4F808182
:100700009181029799F080819181019741F440E0B5
:1007100052E06CE374E180E192E050D107C046E022
:1007200052E066ED73E180E192E048D103DF60CFF3
:10073000FE01EC5FFE4F10821982188280910C023C
:1007400090910D02019790930D0280930C02F2DEBE
:100750004FCFDF91CF911F91089520910E023091DC
:100760000F02232B09F446C0F8946330710549F455
:10077000E0911002F0911102E55FFE4F22E020832C
:1007800020C06230710549F4E0911002F09111022D
:10079000E55FFE4F24E0208314C06130710549F409
:1007A000E0911002F0911102E55FFE4F23E02083FB
:1007B00008C0E0911002F0911102E55FFE4F21E0C8
:1007C00020832091100230911102F901E75FFE4F62
:1007D0009183808334977183608332965183408301
:1007E000F0DCE0911002F0911102E45FFE4F808195
:1007F0009181089548CE08950F931F9324173507CC
:1008000008F095DE5093F7134093F6133093D51309
:100810002093D4131093D3130093D213AB0162E04F
:1008200070E09BDF1F910F91089580910E029091CF
:100830000F02892B51F0F894E0911002F09111020F
:10084000E55FFE4F85E08083BCCC0895F89410925C
:100850008000E1E8F0E010821092850010928400A0
:1008600080E792E09093890080938800808188607F
:100870008083808184608083EFE6F0E08081826005
:10088000808310929000E1E9F0E0108210929500D0
:100890001092940083E294EF9093990080939800D3
:1008A00080818860808380818460808382E08093FF
:1008B0007100789408951F920F920FB60F92112431
:1008C0000BB60F92EF92FF920F931F932F933F93CC
:1008D0004F935F936F937F938F939F93AF93BF9348
:1008E000CF93DF93EF93FF93C7E1D3E00F2EF7EBA6
:1008F000EF2EF4E1FF2EF02D888199810297B9F453
:1009000089899A8901979A8B898B892B81F442E096
:1009100052E06AE174E1CE01855091404FD02989BF
:100920003A898D859E85820F931F9A8B898BC65E2F
:10093000DE4FCE15DF0501F778DFFF91EF91DF91F4
:10094000CF91BF91AF919F918F917F916F915F9167
:100950004F913F912F911F910F91FF90EF900F902A
:100960000BBE0F900FBE0F901F9018951F920F9205
:100970000FB60F9211248F939F938091080290914C
:100980000902019690930902809308029F918F912A
:100990000F900FBE0F901F9018950C9A14980D9AF7
:1009A00015980B9A139852DF9EDD41E050E063E00A
:1009B00070E08EE391E0D1DE01CE0895CF93DF9316
:1009C000EA01288139812F30310529F1E881F98147
:1009D0009F012150310972F0EE0FFF1FE60FF71F44
:1009E000DB013291229133832283EA17FB07C9F797
:1009F0002FEF3FEFFC01808191812F5F3F4F220F4E
:100A0000331FFB01E20FF31F91838083888199815B
:100A1000019699838883DF91CF910895DB012D9111
:100A20003C911197232BA9F02D913C911197F9013D
:100A3000E150F048EE0FFF1FE80FF91F8081918110
:100A40002D913C9111972150310911963C932E9391
:100A5000089580E090E00895EE0FFF1F881F8BBF80
:0C0A60000790F691E02D1994F894FFCF58
:00000001FF
