:1000000071C0000081C000007FC000007DC0000002
:100010007BC0000079C0000077C0000075C0000000
:1000200073C0000071C000006FC000006DC0000010
:100030006BC0000069C0000067C0000065C0000020
:1000400063C00000EAC400005FC000005DC00000A3
:100050005BC0000059C0000057C0000055C0000040
:1000600053C0000051C000004FC000004DC0000050
:100070004BC0000049C0000047C0000045C0000060
:100080001EC5000041C000003FC000003DC0000090
:100090003BC0000039C0000037C0000035C0000080
:1000A00033C0000031C000002FC000002DC0000090
:1000B0002BC0000029C0000027C0000025C00000A0
:1000C00023C0000021C000001FC000001DC00000B0
:1000D0001BC0000019C0000017C0000015C00000C0
:1000E00013C0000011241FBECFEFD1E2DEBFCDBF91
:1000F00000E00CBF24E1A0E0B2E001C01D92A435F5
:10010000B207E1F7F3D4C7C57BCF0F921F922F92AE
:100110003F924F925F926F927F928F929F92AF9297
:10012000BF92CF92DF92EF92FF920F931F932F9384
:100130003F934F935F936F937F938F939F93AF936F
:10014000BF93CF93DF93EF93FF930FB70F93FCB75A
:10015000FF93EDB7FEB7E0933214F0933314E091C0
:10016000F013F091F113EDBFFEBFFF91FCBF0F91B3
:100170000FBFFF91EF91DF91CF91BF91AF919F9111
:100180008F917F916F915F914F913F912F911F912F
:100190000F91FF90EF90DF90CF90BF90AF909F9026
:1001A0008F907F906F905F904F903F902F901F9017
:1001B0000F9018950F921F922F923F924F925F923D
:1001C0006F927F928F929F92AF92BF92CF92DF9267
:1001D000EF92FF920F931F932F933F934F935F9351
:1001E0006F937F938F939F93AF93BF93CF93DF933F
:1001F000EF93FF930FB70F93FCB7FF93EDB7FEB7E5
:10020000E093F013F093F113E0913214F091331472
:10021000EDBFFEBFFF91FCBF0F910FBFFF91EF91AC
:10022000DF91CF91BF91AF919F918F917F916F910E
:100230005F914F913F912F911F910F91FF90EF9000
:10024000DF90CF90BF90AF909F908F907F906F90F6
:100250005F904F903F902F901F900F9008950B9AB2
:100260001398FDCF0B9A139AFDCFEF92FF920F9345
:100270001F930F2EF3E0EF2EF12CF02D01E010E094
:1002800020E030E040E050E062E070E082E391E0A6
:1002900078D221E030E040E050E062E070E08FE2B0
:1002A00091E06FD25AD01F910F91FF90EF90089577
:1002B000FFCF64E072E080ED93E158D490930F0299
:1002C00080930E028091020290910302892BD9F053
:1002D00062E072E082E194E1CAD4FC01E85EFE4F84
:1002E00080819181892B79F480910E0290910F0287
:1002F000892B49F462E072E082E194E137D4909373
:100300000F0280930E0280910E0290910F02892BB2
:1003100049F460E072E084E394E128D490930F0202
:1003200080930E0280910E0290910F02892B31F47E
:1003300080E192E090930F0280930E02E0910E0212
:10034000F0910F02828193819093F1138093F013C7
:10035000EC5FFE4F82E08083089580910C029091C3
:100360000D02892B51F0F894E0910E02F0910F02EA
:10037000E55FFE4F86E080831DCF08958F929F92A8
:10038000AF92BF92CF92DF92EF92FF920F931F93A3
:10039000CF93DF931F921F92CDB7DEB79A838983E5
:1003A0005C01A4E0AA0EB11C812C99249394F50160
:1003B000D40111921197E9F7DC01AD5FBE4FEDEA70
:1003C000F1E0EC931197FC93FC01EF5FFE4F60832B
:1003D0003197708331971082B397DC011396FC93A9
:1003E000EE931297BD96718360833296108260916E
:1003F000080270910902FC017183608389819A81EE
:10040000FC01EB5FFE4F51834083329631832083A2
:1004100071962FEF3FEF3183208332961182108245
:100420003497118300833497D182C0823296F1824F
:10043000E08220910A0230910B022F5F3F4F3093F0
:100440000B0220930A0220910802309109022F5FCB
:100450003F4F3093090220930802709721E02083D8
:100460004330510541F444E052E060ED73E1CE01C8
:1004700001964CD31AC04230510569F4FC01E85E84
:10048000FE4F1183008342E052E062E174E1CE014D
:1004900001968AD30AC04130510539F440E052E058
:1004A00064E374E1CE01019631D3E981FA81808160
:1004B00091810F900F90DF91CF911F910F91FF903D
:1004C000EF90DF90CF90BF90AF909F908F90089566
:1004D000CF92DF92EF92FF920F931F93CF93DF9310
:1004E000E90120910A0230910B022031310541F1DE
:1004F00020911403222371F0A0E3B4E0E1E0F0E0E6
:100500003C91332349F03196A45EBE4FE031F105B2
:10051000B9F702C0E0E0F0E0670178018E019A01CE
:10052000AB01BC018CE191E0E89FD001E99FB00DE7
:10053000F89FB00D1124CD01805F9D4F1FDF00C0DB
:10054000DF91CF911F910F91FF90EF90DF90CF90AF
:10055000089510920B0210920A0210920D0210924E
:100560000C021092090210920802E0E1F2E020ED84
:1005700033E18CE191E0DF01AC011D92415050402C
:10058000E1F7DF01AC5FBE4F1C9211821082E45E86
:10059000FE4FE217F30779F70895DF92EF92FF928B
:1005A0000F931F93CF93DF9380910C0290910D02D4
:1005B000892B09F0DEC080910A0290910B02892BF1
:1005C00009F4D7C0F89481E090E090930D028093F5
:1005D0000C026FDEDD24D394E0910E02F0910F0245
:1005E000DF01A55FBE4F1C92828193819093F1132E
:1005F0008093F0138ADDC0910E02D0910F0280919A
:10060000F0139091F1139B838A83FE01E55FFE4F07
:100610008081833009F456C028F4813059F082304B
:1006200009F1DACF853009F464C098F1863009F415
:100630008FC0D2CFFE01E95FFE4F408151813297DA
:1006400060817181349680819181EE24EA94FE2C40
:100650000FEF1FEF2FEF3FEF3BDFC45FDE4F9983BC
:100660008883BACFFE01E95FFE4F40815181329607
:1006700080819181EE24EA94FE2C0FEF1FEF2FEF83
:100680003FEF63E070E024DFC45FDE4F998388832F
:10069000A3CFFE01EE5EFE4FE080F1803296008136
:1006A00011813296208131813F974081518132966C
:1006B0008081918162E070E00BDFC45FDE4F99833F
:1006C00088838ACFFE01E95FFE4F408151813296D7
:1006D00080819181EE24EA94FE2C0FEF1FEF2FEF23
:1006E0003FEF61E070E0F4DEC45FDE4F9983888302
:1006F00073CFFE01EC5FFE4FD082319680819181F5
:10070000039741F444E052E060ED73E18EE092E043
:10071000FDD11CC0FE01EB5FFE4F808191810297ED
:1007200041F442E052E062E174E18EE092E03CD2BA
:100730000DC0CB5FDE4F88819981019739F440E08D
:1007400052E064E374E18EE092E0E0D1B2DD44CFA8
:10075000FE01EC5FFE4F10821982188280910A021E
:1007600090910B02019790930B0280930A02A1DDF6
:1007700033CFDF91CF911F910F91FF90EF90DF90DA
:100780000895EF92FF920F931F93CF93E0910C0285
:10079000F0910D02EF2B09F45DC0F8946330710500
:1007A00049F4E0910E02F0910F02E55FFE4FA2E0E6
:1007B000A08328C06230710589F4E0910E02F091A7
:1007C0000F02DF01A55FBE4FC4E0CC93E85EFE4F91
:1007D000D901AE0DBF1DB183A08314C06130710576
:1007E00049F4E0910E02F0910F02E55FFE4FA3E0A5
:1007F000A08308C0E0910E02F0910F02E55FFE4F6A
:10080000A1E0A083E0910E02F0910F02DF01A75F4B
:10081000BE4F11969C938E93149711967C936E9372
:10082000129611965C934E931F9611963C932E93BD
:10083000129711961C930E93EE5EFE4FF182E082AA
:10084000B9DCE0910E02F0910F02E45FFE4F80816F
:10085000918108C0EE24EA94FE2C0FEF1FEF2FEFDA
:100860003FEF36DECF911F910F91FF90EF900895EB
:10087000EF92FF920F931F93AB01EE24EA94FE2CAC
:100880000FEF1FEF2FEF3FEF63E070E07ADF1F9174
:100890000F91FF90EF900895EF92FF920F931F93A7
:1008A00080910C0290910D02892BF1F0F8948091C7
:1008B0000E0290910F02FC01E75FFE4F28E531E048
:1008C00031832083349724E030E0318320833296D3
:1008D000118210826FDCE0910E02F0910F02E45F52
:1008E000FE4F808191810EC0EE24EA94FE2C0FEF22
:1008F0001FEF2FEF3FEF40E050E064E070E088E54D
:1009000091E0E6DD1F910F91FF90EF9008958091A7
:100910000C0290910D02892B09F449C0F894809142
:100920000E0290910F02FC01EB5FFE4F208131819E
:100930002330310519F43696108238C0FC01EB5F84
:10094000FE4F208131812230310559F57596408165
:1009500051813697208131814217530739F0209118
:1009600004023091050212161306B4F4FC01EE5E87
:10097000FE4F20813181389640815181241B350BF7
:10098000DC01A85EBE4F11963C932E93118210821B
:100990003F9785E080830AC0FC01E55FFE4F10822F
:1009A00005C0FC01E55FFE4F85E0808303CC089520
:1009B000F89410928000E1E8F0E010821092850037
:1009C0001092840080E792E09093890080938800E1
:1009D000808188608083808184608083EFE6F0E09E
:1009E00080818260808310929000E1E9F0E01082C3
:1009F000109295001092940083E294EF90939900E6
:100A00008093980080818860808380818460808367
:100A100082E080937100789408951F920F920FB630
:100A20000F9211240BB60F922F933F934F935F9326
:100A30006F937F938F939F93AF93BF93EF93FF93A6
:100A400080910E0290910F02FC01EB5FFE4F20811E
:100A500031812230310531F4759680819181019682
:100A600091838083A0910202B0910302CD0101978E
:100A700092F0AA0FBB1FAE5EBB4E22E134E1FE91A5
:100A8000EE91E85EFE4F8081918101979183808392
:100A9000A217B307A1F73BDFFF91EF91BF91AF9191
:100AA0009F918F917F916F915F914F913F912F9186
:100AB0000F900BBE0F900FBE0F901F9018951F92B6
:100AC0000F920FB60F9211248F939F93809106027D
:100AD00090910702019690930702809306029F91DE
:100AE0008F910F900FBE0F901F9018950C9A14982D
:100AF0000D9A15980B9A13985BDF2BDDCDDE61E024
:100B000070E085E391E0B4DE48CD0895CF93DF93A4
:100B1000EA01288139812F30310529F1E881F981F5
:100B20009F012150310972F0EE0FFF1FE60FF71FF2
:100B3000DB013291229133832283EA17FB07C9F745
:100B40002FEF3FEFFC01808191812F5F3F4F220FFC
:100B5000331FFB01E20FF31F91838083888199810A
:100B6000019699838883DF91CF910895DB012D91C0
:100B70003C911197232BA9F02D913C911197F901EC
:100B8000E150F048EE0FFF1FE80FF91F80819181BF
:100B90002D913C9111972150310911963C932E9340
:100BA000089580E090E00895CF92DF92EF92FF9257
:100BB0000F931F93CF93DF936A01EA012881398154
:100BC0002F30310509F44AC028813981215031097B
:100BD000FC0100811181F901EE0FFF1FDB01AE0F57
:100BE000BF1F4D915C9133233CF1D801A85EBE4FED
:100BF000ED90FC90DA01A85EBE4F4D915C91E41639
:100C0000F506D4F0E60FF71F085E1E4FA081B181F4
:100C1000B383A28321503109B291A2912F3F4FEFAC
:100C2000340751F0E801E880F980A85EBE4F4D918D
:100C30005C91E416F50654F7FC01808191812F5FE9
:100C40003F4F220F331FFB01E20FF31F918380837D
:100C5000E60188819981019699838883DF91CF91FC
:100C60001F910F91FF90EF90DF90CF900895FB01BF
:100C700020813181232B61F020813181F901E15004
:100C8000F048EE0FFF1FE80FF91F80819181089552
:0A0C900080E090E00895F894FFCF93
:00000001FF
