:100000007BC000009AC0000098C0000096C00000AD
:1000100094C0000092C0000090C000008EC000009C
:100020008CC000008AC0000088C0000086C00000AC
:1000300084C0000082C0000080C000007EC00000BC
:100040007CC00000D2C4000078C0000076C0000070
:1000500074C0000072C0000070C000006EC00000DC
:100060006CC000006AC0000068C0000066C00000EC
:1000700064C0000062C0000060C000005EC00000FC
:1000800015C500005AC0000058C0000056C000004E
:1000900054C0000052C0000050C000004EC000001C
:1000A0004CC000004AC0000048C0000046C000002C
:1000B00044C0000042C0000040C000003EC000003C
:1000C0003CC000003AC0000038C0000036C000004C
:1000D00034C0000032C0000030C000002EC000005C
:1000E0002CC000005109AE0997096909D309110A0A
:1000F0000B0A0D0A0F0A090A11241FBECFEFD1E225
:10010000DEBFCDBF00E00CBF12E0A0E0B2E0ECE249
:10011000FBE100E00BBF02C007900D92AC35B107C8
:10012000D9F727E1ACE5B2E001C01D92A53AB207CC
:10013000E1F70E942B0A0C94940D62CF0F921F924C
:100140002F923F924F925F926F927F928F929F92E7
:10015000AF92BF92CF92DF92EF92FF920F931F93D5
:100160002F933F934F935F936F937F938F939F93BF
:10017000AF93BF93CF93DF93EF93FF930FB70F939B
:10018000FCB7FF93EDB7FEB7E0938317F0938417A6
:10019000E0916117F0916217EDBFFEBFFF91FCBFC8
:1001A0000F910FBFFF91EF91DF91CF91BF91AF9171
:1001B0009F918F917F916F915F914F913F912F917F
:1001C0001F910F91FF90EF90DF90CF90BF90AF9075
:1001D0009F908F907F906F905F904F903F902F9067
:1001E0001F900F9018950F921F922F923F924F924F
:1001F0005F926F927F928F929F92AF92BF92CF92B7
:10020000DF92EF92FF920F931F932F933F934F93A1
:100210005F936F937F938F939F93AF93BF93CF938E
:10022000DF93EF93FF930FB70F93FCB7FF93EDB7F7
:10023000FEB7E0936117F0936217E0918317F09196
:100240008417EDBFFEBFFF91FCBF0F910FBFFF9161
:10025000EF91DF91CF91BF91AF919F918F917F915E
:100260006F915F914F913F912F911F910F91FF904F
:10027000EF90DF90CF90BF90AF909F908F907F9046
:100280006F905F904F903F902F901F900F90089528
:1002900060E070E080E49BE052C20895FFCF80915F
:1002A000F8049091F904892B51F0F894E091FA0444
:1002B000F091FB04E55FFE4F86E0808394CF0895C4
:1002C0008F929F92AF92BF92CF92DF92EF92FF9266
:1002D0000F931F93CF93DF931F921F92CDB7DEB77B
:1002E0009A8389835C01A4E0AA0EB11C812C992415
:1002F0009394F501D40111921197E9F7DC01AD5FF8
:10030000BE4FEFE4F1E0EC931197FC93FC01EF5F3B
:10031000FE4F10823197608331977083319710823E
:10032000B397DC011396FC93EE931297BE967183FC
:100330006083329610826091F4047091F504FC01A0
:100340007183608389819A81FC01EB5FFE4F518349
:1003500040833296318320833F962FEF3FEF3183E6
:100360002083329611821082349711830083349750
:10037000D182C0823296F182E0822091F6043091DF
:10038000F7042F5F3F4F3093F7042093F60420913A
:10039000F4043091F5042F5F3F4F3093F504209320
:1003A000F4043E9721E020834330510549F440EFA7
:1003B00054E06FE377E1CE0101960E94410A1CC030
:1003C0004230510571F4FC01EA5EFE4F1183008357
:1003D0004EEE54E063E677E1CE0101960E94930A67
:1003E0000BC04130510541F44CEE54E065E877E133
:1003F000CE0101960E94410AE981FA8180819181B2
:100400000F900F90DF91CF911F910F91FF90EF9080
:10041000DF90CF90BF90AF909F908F900895CF9234
:10042000DF92EF92FF920F931F93CF93DF93E90137
:100430002091F6043091F7042031310541F12091EB
:100440000006222371F0A2E2B7E0E1E0F0E03C9187
:10045000332349F03196AE5DBE4FE031F105B9F777
:1004600002C0E0E0F0E0670178018E019A01AB0183
:10047000BC0182E291E0E89FD001E99FB00DF89FB6
:10048000B00D1124CD0184509B4F1ADF02C080E0D3
:1004900090E0DF91CF911F910F91FF90EF90DF904F
:1004A000CF9008951092F7041092F6041092F90478
:1004B0001092F8041092F5041092F404ECEFF4E0BA
:1004C0002CE137E182E291E0DF01AC011D92415065
:1004D0005040E1F7DF01AC5FBE4F1C9211821082E9
:1004E000EE5DFE4FE217F30779F7ACE5B2E080E08E
:1004F00090E029E2FD01322F11923A95E9F7289F09
:10050000F001299FF00D1124E45AFD4F16A2019627
:100510009183808399968031910561F70895479A78
:10052000479881E090E00E94940DA091EE04B09174
:10053000EF04CD010197DAF0AA0FBB1FAD59B84EF9
:1005400043E657E120E030E0FE91EE91EA5EFE4F97
:1005500080819181892B11F42F5F3F4FA417B5073C
:1005600099F7223031051CF081E090E0D8CF089552
:10057000DCDF60EF74E08FE397E1ABD79093FB048F
:100580008093FA048091EE049091EF04892BE1F0BE
:100590006EEE74E083E697E10E94F60AFC01EA5EE3
:1005A000FE4F80819181892B79F48091FA0490919A
:1005B000FB04892B01F56EEE74E083E697E189D7A1
:1005C0009093FB048093FA048091FA049091FB04C9
:1005D000892B89F46CEE74E085E897E17AD79093E3
:1005E000FB048093FA04892B31F48CEF94E0909310
:1005F000FB048093FA04E091FA04F091FB048281F9
:1006000093819093621780936117EC5FFE4F82E0B5
:10061000808308956F927F928F929F92AF92BF9244
:10062000CF92DF92EF92FF920F931F93CF93DF93BE
:10063000E091F804F091F904EF2B09F469C0F89403
:100640006330710549F4E091FA04F091FB04E55F31
:10065000FE4F62E0608322C06230710581F46091D8
:10066000FA047091FB04FB01E55FFE4FA4E0A08358
:100670003B96B9016E0D7F1D718360830FC06130A1
:10068000710549F4E091FA04F091FB04E55FFE4F37
:1006900063E0608303C082E090E041DF6091FA0490
:1006A0007091FB04FB01E75FFE4F918380833297DB
:1006B0006080718051834083DB01AC5EBE4FAD90A2
:1006C000BC9011973B96C080D180605F7E4FEB015C
:1006D0008880998011963C932E9311830083F98230
:1006E000E88281DD2091FA043091FB04F901E45F96
:1006F000FE4F808191813896B182A0823297D1825B
:10070000C08232979182808239977182608208C05C
:10071000EE24EA94FE2C0FEF1FEF2FEF3FEF7FDE6A
:10072000DF91CF911F910F91FF90EF90DF90CF90CD
:10073000BF90AF909F908F907F906F900895EF92B1
:10074000FF920F931F93AB01EE24EA94FE2C0FEF60
:100750001FEF2FEF3FEF63E070E05CDF1F910F9121
:10076000FF90EF900895EF92FF920F931F937A01FD
:10077000A8012E153F0518F083E090E0D0DE890136
:100780009A01AB0162E070E045DF1F910F91FF908D
:10079000EF900895EF92FF920F931F938091F804CA
:1007A0009091F904892BF1F0F8948091FA049091DA
:1007B000FB04FC01E75FFE4F2EE431E03183208330
:1007C000349724E030E03183208332961182108206
:1007D0000ADDE091FA04F091FB04E45FFE4F8081B2
:1007E00091810EC0EE24EA94FE2C0FEF1FEF2FEF45
:1007F0003FEF40E050E064E070E08EE491E00FDE17
:100800001F910F91FF90EF9008958091F8049091BF
:10081000F904892B19F1F8948091FA049091FB0462
:10082000FC01EB5FFE4F208131812230310581F4E4
:100830003B9620813181389640815181241B350BB4
:10084000DC01AA5EBE4F11963C932E93118210825A
:10085000FC01E55FFE4F85E08083C5CC0895809163
:10086000F8049091F904892B09F441C0F89480911F
:10087000FA049091FB04FC01EB5FFE4F2081318173
:100880002330310521F436968AE080832FC0FC01A5
:10089000EB5FFE4F208131812230310511F57396D7
:1008A000408151813697208131814217530718F0DA
:1008B00084E090E034DE2091F0043091F1041216CF
:1008C00013064CF4FC01EA5EFE4F118210823B9746
:1008D00085E080830BC0FC01E55FFE4F8AE08083EA
:1008E00005C0FC01E55FFE4F85E080837CCC089568
:1008F000CF93DF93CDB7DEB728970FB6F894DEBF5E
:100900000FBECDBF80918400909185009A8389832A
:1009100089819A819C838B836B817C8180E090E0CC
:10092000B9D720E030EC4EE154E420D720E030E0AD
:1009300040E251E40E94D80C6D837E838F839887B8
:100940006D817E818F81988579D720915F17309155
:100950006017A901440F551F220F331F220F331FA9
:10096000220F331F240F351FC901860F971F2896AA
:100970000FB6F894DEBF0FBECDBFDF91CF910895C3
:10098000F89410928000E1E8F0E010821092850067
:100990001092840080E792E0909389008093880011
:1009A000808188608083808184608083EFE6F0E0CE
:1009B00080818260808310929000E1E9F0E01082F3
:1009C000109295001092940083E294EF9093990016
:1009D0008093980080818860808380818460808398
:1009E00082E080937100789408951F920F920FB661
:1009F0000F9211240BB60F922F933F934F935F9357
:100A00006F937F938F939F93AF93BF93EF93FF93D6
:100A10008091FA049091FB04FC01EB5FFE4F208172
:100A200031812230310531F47396808191810196B4
:100A30009183808380915F179091601701969093C6
:100A4000601780935F17A091EE04B091EF04CD0181
:100A50000197C2F0AA0FBB1FAD59B84E43E657E14C
:100A60009E918E91FC01EA5EFE4F2081318112162B
:100A700013062CF480819181019791838083A417C0
:100A8000B50771F7ECDEFF91EF91BF91AF919F91A8
:100A90008F917F916F915F914F913F912F910F9027
:100AA0000BBE0F900FBE0F901F9018951F920F92C4
:100AB0000FB60F9211248F939F938091F20490911F
:100AC000F30401969093F3048093F2049F918F9125
:100AD0000F900FBE0F901F9018950F931F93CF93F9
:100AE000DF938091FA049091FB04FC01E45EFE4FD9
:100AF000208131812150310949E2429FF001439F19
:100B0000F00D1124E45AFD4F24A135A1232B09F047
:100B10003DC0FC01E45EFE4F20813181215031094E
:100B2000429FF001439FF00D1124E45AFD4F2281B2
:100B30003381232B41F5DC01A45EBE4F2D913C9106
:100B4000119721503109429FF001439FF00D11246C
:100B5000E45AFD4F93838283FC01EC5FFE4F23E058
:100B600020832D913C91215031097C968081918187
:100B7000429FF001439FF00D1124E45AFD4F90A7CE
:100B800087A3F6DC0DC186E090E0C9DCFC01E45EE1
:100B9000FE4F208131812150310949E2429FF0010D
:100BA000439FF00D1124E45AFD4F22813381232B02
:100BB00019F086E090E0B3DCFC01E45EFE4F80813A
:100BC0009181019729E2289FF001299FF00D1124BE
:100BD000E45AFD4FC4A1D5A121970AF4CEC019E271
:100BE00001E02091FA043091FB04C901845E9E4F1C
:100BF000DC014D915C9141505109FE013296EE0F9E
:100C0000FF1F149FD001159FB00D1124AE0FBF1F01
:100C1000A45ABD4F0D90BC91A02DAC5FBE4F0C935C
:100C2000DC014D915C9141505109149FD001159FF9
:100C3000B00D1124AE0FBF1FA45ABD4F6D917C9112
:100C4000A901405E5E4FDA014D915C91DB01A05E2F
:100C5000BE4F4D935C93DC014D915C9111974150D7
:100C60005109149FC001159F900D1124E80FF91F21
:100C7000E45AFD4F0190F081E02DEB5FFE4F808143
:100C800091810397C1F4FD0140815181CE0102960B
:100C9000880F991F41505109149F9001159F300DE5
:100CA0001124820F931F40EF54E06FE377E1845AE1
:100CB0009D4FE7D336C0F901E45EFE4F408151817C
:100CC00041505109FE013296EE0FFF1F149FC001E3
:100CD000159F900D1124E80FF91FE45AFD4F019064
:100CE000F081E02DEB5FFE4F808191810197C9F487
:100CF000F901E45EFE4F40815181CE010296880FDA
:100D0000991F41505109149F9001159F300D1124D6
:100D1000820F931F4CEE54E065E877E1845A9D4FB3
:100D2000B0D3A091FA04B091FB04A45EBE4F2D9104
:100D30003C91119721503109FE013296EE0FFF1FB1
:100D4000129FC001139F900D1124E80FF91FE45A60
:100D5000FD4F118210828D919C910197189FF00197
:100D6000199FF00D1124E45AFD4F84A195A101971C
:100D700095A384A321970AF034CFE091FA04F0916F
:100D8000FB04E45EFE4F80819181019729E2289F58
:100D9000F001299FF00D1124E45AFD4F10A617A26F
:100DA000DF91CF911F910F9108958091FA04909156
:100DB000FB04FC01E25EFE4F2081318121503109AC
:100DC00049E2429FF001439FF00D1124E45AFD4F88
:100DD00022813381232B09F5FC01EC5FFE4F23E0D8
:100DE00020837A962081318180819181215031093F
:100DF000E9E2E29FA001E39F500D112440585D4FAE
:100E00000197E89FB001E99F700D1124605A7D4F52
:100E10008AEF94E036D3ACCB0895FC01E25EFE4F3E
:100E2000208131812150310949E2429FD001439F05
:100E3000B00D1124A45ABD4F12960D90BC91A02D57
:100E4000AC5FBE4F21E02C932081318121503109CC
:100E5000429FD001439FB00D1124A45ABD4F9796D5
:100E60002D913C919897DC01A05EBE4F11963C936A
:100E70002E932081318121503109429FF001439FFF
:100E8000F00D1124E45AFD4F0280F381E02DEB5F59
:100E9000FE4F2081318123303105A1F4FC01E25E57
:100EA000FE4F2081318121503109429FC001439F73
:100EB000900D112440EF54E06FE377E1825A9D4F8B
:100EC000E0D22CC0FC01E25EFE4F20813181215036
:100ED000310949E2429FF001439FF00D1124E45A89
:100EE000FD4F0280F381E02DEB5FFE4F20813181C9
:100EF0002130310599F4FC01E25EFE4F2081318101
:100F000021503109429FC001439F900D11244CEEA6
:100F100054E065E877E1825A9D4FB3D28091FA049C
:100F20009091FB04FC01E25EFE4F20813181215053
:100F3000310949E2429FF001439FF00D1124E45A28
:100F4000FD4F13821282FC01E45EFE4F808191818D
:100F50000197489FF001499FF00D1124E45AFD4F7D
:100F600010A617A208950F931F93CF93DF9380913C
:100F7000FA049091FB04FC01E45EFE4F2081318174
:100F80002150310949E2429FF001439FF00D1124A5
:100F9000E45AFD4F24A135A1232B31F5FC01E45E79
:100FA000FE4F2081318121503109429FF001439F42
:100FB000F00D1124E45AFD4F22813381232B89F453
:100FC000FC01E45EFE4F2081318121503109429FB6
:100FD000F001439FF00D1124E45AFD4F9383828367
:100FE0000DC186E090E09BDAFC01E45EFE4F2081BB
:100FF00031812150310949E2429FF001439FF00DB8
:101000001124E45AFD4F22813381232B19F086E00D
:1010100090E085DAFC01E45EFE4F808191810197CA
:1010200029E2289FF001299FF00D1124E45AFD4F79
:10103000C4A1D5A121970AF4CEC019E201E0209104
:10104000FA043091FB04C901845E9E4FDC014D918E
:101050005C9141505109FE013296EE0FFF1F149F23
:10106000D001159FB00D1124AE0FBF1FA45ABD4F64
:101070000D90BC91A02DAC5FBE4F0C93DC014D9147
:101080005C9141505109149FD001159FB00D11245E
:10109000AE0FBF1FA45ABD4F6D917C91A901405E58
:1010A0005E4FDA014D915C91DB01A05EBE4F4D9326
:1010B0005C93DC014D915C91119741505109149F53
:1010C000C001159F900D1124E80FF91FE45AFD4F40
:1010D0000190F081E02DEB5FFE4F808191810397BD
:1010E000C1F4FD0140815181CE010296880F991F04
:1010F00041505109149F9001159F300D1124820F0A
:10110000931F40EF54E06FE377E1845A9D4FB9D1CC
:1011100036C0F901E45EFE4F4081518141505109D2
:10112000FE013296EE0FFF1F149FC001159F900D18
:101130001124E80FF91FE45AFD4F0190F081E02DD2
:10114000EB5FFE4F808191810197C9F4F901E45E64
:10115000FE4F40815181CE010296880F991F415068
:101160005109149F9001159F300D1124820F931F78
:101170004CEE54E065E877E1845A9D4F82D1A0910E
:10118000FA04B091FB04A45EBE4F2D913C911197DF
:1011900021503109FE013296EE0FFF1F129FC00150
:1011A000139F900D1124E80FF91FE45AFD4F11828F
:1011B00010828D919C910197189FF001199FF00D5D
:1011C0001124E45AFD4F84A195A1019795A384A30E
:1011D00021970AF034CFE091FA04F091FB04E45E29
:1011E000FE4F80819181019729E2289FF001299F7C
:1011F000F00D1124E45AFD4F10A617A2DF91CF91F4
:101200001F910F910895CF92DF92EF92FF920F936B
:101210001F93CF93DF938091F8049091F904892B69
:1012200009F010C18091F6049091F704892B09F41C
:1012300009C1F89481E090E09093F9048093F80458
:1012400097D9DD24D3940F2EF5E0CF2EF02DE09129
:10125000FA04F091FB04DF01A55FBE4F1C9282816E
:10126000938190936217809361170E949E00C091B2
:10127000FA04D091FB0480916117909162179B83CF
:101280008A83FE01E55FFE4FE0818E2F90E0FC0136
:101290003197EA30F105D8F68827EE58FF4F8F4F87
:1012A000EAC3FE01E95FFE4F4081518132976081C0
:1012B0007181349680819181EE24EA94FE2C0FEFA7
:1012C0001FEF2FEF3FEFABD8C45FDE4F99838883CA
:1012D000BECFFE01E05FFE4FE080F18032960081DC
:1012E00011813296208131813D9740815181329622
:1012F0008081918162E070E092D8C45FDE4F998373
:1013000088838091FA049091FB04FC01EB5FFE4F0F
:10131000208131812130310509F099CF3F9620811C
:101320003181232B09F093CF3997C0823CC0FE0155
:10133000E95FFE4F40815181329680819181EE2498
:10134000EA94FE2C0FEF1FEF2FEF3FEF61E070E00C
:1013500066D8C45FDE4F9983888379CFFE01E95F49
:10136000FE4F40815181329680819181EE24EA9432
:10137000FE2C0FEF1FEF2FEF3FEF63E070E04FD831
:10138000C45FDE4F998388838091FA049091FB04B7
:10139000FC01EB5FFE4F208131812330310509F4E0
:1013A00056CF3696C0828091FA049091FB04FC01DE
:1013B000EC5FFE4FD08231962081318123303105A0
:1013C00041F440EF54E06FE377E18AEF94E059D0C5
:1013D0001EC0FC01EB5FFE4F2081318122303105C0
:1013E00041F44EEE54E063E677E18AEF94E09BD05F
:1013F0000EC0FC01EB5FFE4F80819181019739F4B3
:101400004CEE54E065E877E18AEF94E03AD0B0D84A
:101410001ECF8BD81CCF61DB1ACFA5DD18CFC5DC62
:1014200016CFFE01EC5FFE4F108219821882809168
:10143000F6049091F70401979093F7048093F604D3
:1014400097D805CFDF91CF911F910F91FF90EF902B
:10145000DF90CF9008950B9A13980C9A14980D9AD8
:1014600015980E9A16980F9A17983F9A479888DA07
:1014700019D890D96AE270E088E491E060D9C3CECF
:101480000895CF93DF93EA01288139812F30310508
:10149000E9F0E881F9819F012150310962F0EE0FF6
:1014A000FF1FE60FF71FDB01329122913383228366
:1014B000EA17FB07C9F7FC0180819181FB01918349
:1014C000808388819981019699838883DF91CF9168
:1014D0000895AC01DB018D919C911197892B01F14D
:1014E000ED91FC911197E150F048EE0FFF1FE40FD2
:1014F000F51F808191812D913C911197F901E15067
:10150000F048EE0FFF1FE40FF51F118210822D919E
:101510003C9111972150310911963C932E930895D7
:1015200080E090E00895CF92DF92EF92FF920F93C8
:101530001F93CF93DF936A01EA01288139812F300D
:10154000310509F44AC02881398121503109FC0153
:1015500000811181F901EE0FFF1FDB01AE0FBF1FEC
:101560004D915C9133233CF1D801AA5EBE4FED90C2
:10157000FC90DA01AA5EBE4F4D915C91E416F5062F
:10158000D4F0E60FF71F0A5E1E4FA081B181B3832E
:10159000A28321503109B291A2912F3F4FEF34071E
:1015A00051F0E801E880F980AA5EBE4F4D915C9150
:1015B000E416F50654F7FC01808191812F5F3F4FBF
:1015C000220F331FFB01E20FF31F91838083E6019B
:1015D00088819981019699838883DF91CF911F91AA
:1015E0000F91FF90EF90DF90CF900895FB01208145
:1015F0003181232B61F020813181F901E150F048E4
:10160000EE0FFF1FE80FF91F80819181089580E0A0
:1016100090E008956DD94AE050E06CE177E147D25F
:101620006CE177E181E297E168D060E072E081E20D
:1016300097E134D2892B21F488E192E077D003C07E
:1016400089E392E073D00C944F01089551D94AE098
:1016500050E06CE177E12BD26CE177E181E297E138
:101660004CD0D3D845D94AE050E06CE177E11FD2A5
:101670006CE177E181E297E140D00C944F0108954D
:101680000F931F933ED008E010E021E030E040E1EE
:1016900050E060E070E086E29BE065D809E010E091
:1016A00021E030E040E150E060E070E086E29BE065
:1016B0005AD806E010E021E030E048E050E060E079
:1016C00070E086E29BE04FD807E010E021E030E0D8
:1016D00048E050E060E070E086E29BE044D800E241
:1016E00010E021E030E041E250E060E070E08AE0AC
:1016F0009BE039D81F910F910895F894C4D1789444
:101700000895F894E1ECF0E0808188618083A2EC98
:10171000B0E08C9186608C9387E68093C400109231
:10172000C50080818068808378940895CF93DF938B
:10173000F894FC012081222369F0DC011196E0EC91
:10174000F0E0C6ECD0E0908195FFFDCF28832D918D
:101750002111F9CFE0ECF0E0808185FFFDCF8AE038
:101760008093C6007894DF91CF9108950CD0E6C0A5
:10177000DED040F0D5D030F021F45F3F19F0C7C083
:10178000511110C1CAC0EBD098F39923C9F3552366
:10179000B1F3951B550BBB27AA2762177307840764
:1017A00038F09F5F5F4F220F331F441FAA1FA9F31A
:1017B00033D00E2E3AF0E0E830D091505040E6950C
:1017C000001CCAF729D0FE2F27D0660F771F881F6D
:1017D000BB1F261737074807AB07B0E809F0BB0B5C
:1017E000802DBF01FF2793585F4F2AF09E3F510580
:1017F00068F08DC0D7C05F3FECF3983EDCF3869570
:1018000077956795B795F7959F5FC9F7880F911DF5
:101810009695879597F90895E1E0660F771F881FE1
:10182000BB1F621773078407BA0720F0621B730B94
:10183000840BBA0BEE1F88F7E095089598D088F0D6
:101840009F5790F0B92F9927B751A0F0D1F0660FAC
:10185000771F881F991F1AF0BA95C9F712C0B130C7
:1018600081F09FD0B1E008959CC0672F782F882722
:10187000B85F39F0B93FCCF3869577956795B39506
:10188000D9F73EF490958095709561957F4F8F4F75
:101890009F4F0895E89409C097FB3EF4909580957A
:1018A000709561957F4F8F4F9F4F9923A9F0F92F26
:1018B00096E9BB279395F695879577956795B795A4
:1018C000F111F8CFFAF4BB0F11F460FF1BC06F5F8A
:1018D0007F4F8F4F9F4F16C0882311F096E911C09C
:1018E000772321F09EE8872F762F05C0662371F0BD
:1018F00096E8862F70E060E02AF09A95660F771FD1
:10190000881FDAF7880F9695879597F9089597F9C4
:101910009F6780E870E060E008959FEF80EC089595
:1019200000240A94161617061806090608950024BE
:101930000A9412161306140605060895092E039438
:10194000000C11F4882352F0BB0F40F4BF2B11F4AC
:1019500060FF04C06F5F7F4F8F4F9F4F089557FD0B
:101960009058440F551F59F05F3F71F04795880F0D
:1019700097FB991F61F09F3F79F0879508951216A4
:1019800013061406551FF2CF4695F1DF08C0161650
:1019900017061806991FF1CF869571056105089401
:1019A0000895E894BB2766277727CB0197F9089518
:1019B0000BD0C4CFB5DF28F0BADF18F0952309F0BB
:1019C000A6CFABCF1124EECFCADFA0F3959FD1F302
:1019D000950F50E0551F629FF001729FBB27F00DDD
:1019E000B11D639FAA27F00DB11DAA1F649F662732
:1019F000B00DA11D661F829F2227B00DA11D621F81
:101A0000739FB00DA11D621F839FA00D611D221F3A
:101A1000749F3327A00D611D231F849F600D211D1E
:101A2000822F762F6A2F11249F5750408AF0E1F0C1
:101A300088234AF0EE0FFF1FBB1F661F771F881F0A
:101A400091505040A9F79E3F510570F060CFAACF4A
:101A50005F3FECF3983EDCF3869577956795B795F5
:101A6000F795E7959F5FC1F7FE2B880F911D96951F
:101A7000879597F90895EE0FFF1F881F8BBF07907A
:101A8000F691E02D1994FB01DC010D900020E9F79F
:101A9000119701900D920020E1F70895FB01DC0100
:101AA0008D91019080190110D9F3990B0895453259
:101AB000510518F4423008F004C0FB011082CB013C
:101AC0000895BB274A3031F4992322F4BDE2909562
:101AD00081959F4F01C0BB27FB015527AA27880F7F
:101AE000991FAA1FA41710F0A41B83955051B9F792
:101AF000A05DAA3308F0A95DA193009779F7B11111
:101B0000B1931192CB0100C0DC01FC01672F7191F0
:101B10007723E1F7329704C07C916D9370836291D3
:0C1B2000AE17BF07C8F30895F894FFCF7C
:101B2C00363037303830393031343031353032347A
:101B3C003032353033323000746573745F706572D7
:101B4C00696F6469635F7461736B5F74696D696EEF
:101B5C00672050415353454400746573745F70653E
:101B6C0072696F6469635F7461736B5F6F766572C2
:0C1B7C006C6170204641494C454400005B
:00000001FF
