S012000050726F6A656374325F322E7372656378
S113000078C0000088C0000086C0000084C00000E2
S113001082C0000080C000007EC000007CC00000E0
S11300207AC0000078C0000076C0000074C00000F0
S113003072C0000070C000006EC000006CC0000000
S11300406AC000006EC3000066C0000064C0000007
S113005062C0000060C000005EC000005CC0000020
S11300605AC0000058C0000056C0000054C0000030
S113007052C0000050C000004EC000004CC0000040
S113008089C3000048C0000046C0000044C000000E
S113009042C0000040C000003EC000003CC0000060
S11300A03AC0000038C0000036C0000034C0000070
S11300B032C0000030C000002EC000002CC0000080
S11300C02AC0000028C0000026C0000024C0000090
S11300D022C0000020C000001EC000001CC00000A0
S11300E01AC00000FA02B902CA02EA02DA02FA02EB
S11300F0060311241FBECFEFD1E2DEBFCDBF00E067
S11301000CBF24E1A0E0B2E001C01D92A435B20707
S1130110E1F757D3B7C374CF0F921F922F923F9238
S11301204F925F926F927F928F929F92AF92BF9203
S1130130CF92DF92EF92FF920F931F932F933F93EF
S11301404F935F936F937F938F939F93AF93BF93DB
S1130150CF93DF93EF93FF930FB70F93FCB7FF9306
S1130160EDB7FEB7E0933214F0933314E091F0133B
S1130170F091F113EDBFFEBFFF91FCBF0F910FBFD4
S1130180FF91EF91DF91CF91BF91AF919F918F91AB
S11301907F916F915F914F913F912F911F910F919B
S11301A0FF90EF90DF90CF90BF90AF909F908F9093
S11301B07F906F905F904F903F902F901F900F9083
S11301C018950F921F922F923F924F925F926F92C7
S11301D07F928F929F92AF92BF92CF92DF92EF92D3
S11301E0FF920F931F932F933F934F935F936F93BC
S11301F07F938F939F93AF93BF93CF93DF93EF93AB
S1130200FF930FB70F93FCB7FF93EDB7FEB7E093DF
S1130210F013F093F113E0913214F0913314EDBF25
S1130220FEBFFF91FCBF0F910FBFFF91EF91DF91D4
S1130230CF91BF91AF919F918F917F916F915F917A
S11302404F913F912F911F910F91FF90EF90DF906D
S1130250CF90BF90AF909F908F907F906F905F9062
S11302604F903F902F901F900F9008950B9A1398E2
S1130270FDCF0B9A139AFDCF40E050E063E070E0AD
S113028089E391E0E3D140E050E064E070E086E38C
S113029091E0DCD101C0089580910C0290910D028F
S11302A0892B51F0F894E0910E02F0910F02E55F72
S11302B0FE4F86E0808385CF0895EF92FF920F93DF
S11302C01F93CF93DF931F921F92CDB7DEB79A830C
S11302D089837C0104E0E00EF11CA0E0B1E0F701A9
S11302E08D01119201501040E1F7DC01AD5FBE4F6A
S11302F0ECE4F1E0EC931197FC93FC01EF5FFE4F0B
S113030060833197708331971082B397DC01139621
S1130310FC93EE931297BD9671836083329610829C
S11303206091080270910902FC01718360838981E4
S11303309A81FC01EB5FFE4F5183408332963183F7
S1130340208320910A0230910B022F5F3F4F30939C
S11303500B0220930A0220910802309109022F5FB8
S11303603F4F3093090220930802339781E0808342
S11303704330510541F442E052E060EB73E1CE01B9
S113038001962AD215C04230510591F041305105F1
S113039041F440E052E064E374E1CE0101961CD2E2
S11303A007C044E052E060ED73E1CE01019614D23F
S11303B0E981FA81808191810F900F90DF91CF9133
S11303C01F910F91FF90EF900895CF93DF93EC016D
S11303D080910A0290910B02409721F180911403BD
S11303E0882371F0AEE2B4E0E1E0F0E09C9199235F
S11303F049F03196A65EBE4FE031F105B9F702C06F
S1130400E0E0F0E09A01AB01BE01AAE1B1E0EA9FAD
S1130410C001EB9F900DFA9F900D1124805F9D4FBA
S11304204CDF00C0DF91CF91089510920B0210921F
S11304300A0210920D0210920C02109209021092FC
S11304400802E0E1F2E020EB33E18AE191E0DF0130
S1130450AC011D9241505040E1F7DF01AC5FBE4F4B
S11304601C9211821082E65EFE4FE217F30779F7C1
S1130470089581E090E006D262E072E080EB93E1BF
S1130480DBD190930F0280930E02892B41F464E335
S113049074E1CB01D1D190930F0280930E0280912D
S11304A00E0290910F02892B49F464E072E080ED12
S11304B093E1C2D190930F0280930E02E0910E0259
S11304C0F0910F02309709F4D4DF828193819093E5
S11304D0F1138093F013EC5FFE4F82E08083089564
S11304E0EF92FF920F931F93CF93DF9380910C02AF
S11304F090910D02892B09F0A2C080910A0290917B
S11305000B02892B09F49BC0F89481E090E090934E
S11305100D0280930C02B0DF6894EE24E2F80AE046
S113052010E0FF24F394E0910E02F0910F02DF013A
S1130530A55FBE4F1C92828193819093F1138093A7
S1130540F013EADDC0910E02D0910F028091F013F6
S11305509091F1139B838A83FE01E55FFE4FE08156
S1130560F0E0E730F105F8F68827EE58FF4F8F4F9B
S113057081C1FE01E95FFE4F408151813297608164
S1130580718134968081918120DFC45FDE4F99832D
S11305908883C9CFFE01E95FFE4F408151813296C5
S11305A08081918163E070E010DFC45FDE4F998346
S11305B08883B9CFFE01E95FFE4F408151813296B5
S11305C08081918162E070E000DFC45FDE4F998337
S11305D08883A9CFFE01E95FFE4F408151813296A5
S11305E08081918161E070E0F0DEC45FDE4F998329
S11305F0888399CFCC5FDE4FF88244E052E060ED0F
S113060073E18EE092E0E8D037DF8DCFFE01EB5F3F
S1130610FE4F11821082DE01AC5FBE4FEC921C9241
S1130620118300831982188280910A0290910B022F
S1130630019790930B0280930A021EDF74CFDF911F
S1130640CF911F910F91FF90EF90089520910C028C
S113065030910D02232BE9F0F89420910E02309191
S11306600F02F901E55FFE4FA1E0A0833297918369
S11306708083349771836083329651834083A1DDF4
S1130680E0910E02F0910F02E45FFE4F80819181B0
S113069008959BCE089580910C0290910D02892BB0
S11306A051F0F894E0910E02F0910F02E55FFE4FD5
S11306B085E0808386CD0895F89410928000E1E867
S11306C0F0E01082109285001092840080E792E09E
S11306D090938900809388008081886080838081E2
S11306E084608083EFE6F0E08081826080831092F2
S11306F09000E1E9F0E010821092950010929400CD
S113070083E294EF909399008093980080818860AD
S1130710808380818460808382E0809371007894F8
S113072008951F920F920FB60F9211240BB60F92D9
S11307302F933F934F935F936F937F938F939F93E5
S1130740AF93BF93EF93FF9380910E0290910F02AA
S1130750FC01EB5FFE4F208131812130310511F422
S11307609ADF05C0FC01EB5FFE4F80819181FF9110
S1130770EF91BF91AF919F918F917F916F915F9115
S11307804F913F912F910F900BBE0F900FBE0F9082
S11307901F9018951F920F920FB60F9211248F93EA
S11307A09F9380910602909107020196909307020D
S11307B0809306029F918F910F900FBE0F901F9010
S11307C018957ADF32DE41E050E060E070E08CE3BF
S11307D091E03CDF85CE0895CF93DF93EA01288131
S11307E039812F30310529F1E881F9819F012150A8
S11307F0310972F0EE0FFF1FE60FF71FDB01329194
S1130800229133832283EA17FB07C9F72FEF3FEFC7
S1130810FC01808191812F5F3F4F220F331FFB0129
S1130820E20FF31F918380838881998101969983D4
S11308308883DF91CF910895DB012D913C9111972D
S1130840232BA9F02D913C911197F901E150F04827
S1130850EE0FFF1FE80FF91F808191812D913C91CC
S113086011972150310911963C932E93089580E0FD
S113087090E00895EE0FFF1F881F8BBF0790F6913D
S10B0880E02D1994F894FFCF58
S9030000FC
