:1000000079C0000097C0000095C0000093C00000B8
:1000100091C000008FC000008DC000008BC00000A8
:1000200089C0000087C0000085C0000083C00000B8
:1000300081C000007FC000007DC000007BC00000C8
:1000400079C0000043C4000075C0000073C0000008
:1000500071C000006FC000006DC000006BC00000E8
:1000600069C0000067C0000065C0000063C00000F8
:1000700061C000005FC000005DC000005BC0000008
:1000800080C4000057C0000055C0000053C00000ED
:1000900051C000004FC000004DC000004BC0000028
:1000A00049C0000047C0000045C0000043C0000038
:1000B00041C000003FC000003DC000003BC0000048
:1000C00039C0000037C0000035C0000033C0000058
:1000D00031C000002FC000002DC000002BC0000068
:1000E00029C0000061077907A9079007C007F30737
:1000F000EF07F10711241FBECFEFD1E2DEBFCDBF66
:1001000000E00CBF12E0A0E0B2E0E8EFF2E100E0B6
:100110000BBF02C007900D92AC37B107D9F727E1AA
:10012000ACE7B2E001C01D92A23AB207E1F774D782
:100130000C947A0965CF0F921F922F923F924F92A3
:100140005F926F927F928F929F92AF92BF92CF9267
:10015000DF92EF92FF920F931F932F933F934F9352
:100160005F936F937F938F939F93AF93BF93CF933F
:10017000DF93EF93FF930FB70F93FCB7FF93EDB7A8
:10018000FEB7E0938017F0938117E0915E17F0912E
:100190005F17EDBFFEBFFF91FCBF0F910FBFFF9137
:1001A000EF91DF91CF91BF91AF919F918F917F910F
:1001B0006F915F914F913F912F911F910F91FF9000
:1001C000EF90DF90CF90BF90AF909F908F907F90F7
:1001D0006F905F904F903F902F901F900F901895C9
:1001E0000F921F922F923F924F925F926F927F9247
:1001F0008F929F92AF92BF92CF92DF92EF92FF9237
:100200000F931F932F933F934F935F936F937F931E
:100210008F939F93AF93BF93CF93DF93EF93FF930E
:100220000FB70F93FCB7FF93EDB7FEB7E0935E17E0
:10023000F0935F17E0918017F0918117EDBFFEBF3B
:10024000FF91FCBF0F910FBFFF91EF91DF91CF9115
:10025000BF91AF919F918F917F916F915F914F91DE
:100260003F912F911F910F91FF90EF90DF90CF90D2
:10027000BF90AF909F908F907F906F905F904F90C6
:100280003F902F901F900F90089560E070E08BEEEC
:1002900098E008D252C00895FFCF60E175E08EE388
:1002A00097E1F6D690931D0580931C0580910E056D
:1002B00090910F05892BD9F06EE075E080E697E10B
:1002C00074D7FC01EA5EFE4F80819181892B79F41D
:1002D00080911C0590911D05892B01F56EE075E05C
:1002E00080E697E1D5D690931D0580931C058091FB
:1002F0001C0590911D05892B89F46CE075E082E85E
:1003000097E1C6D690931D0580931C05892B31F487
:100310008EE195E090931D0580931C05E0911C05EE
:10032000F0911D058281938190935F1780935E17F2
:10033000EC5FFE4F82E080830895809118059091D4
:100340001905892B51F0F894E0911C05F0911D05D9
:10035000E55FFE4F86E0808343CF08958F929F92A2
:10036000AF92BF92CF92DF92EF92FF920F931F93C3
:10037000CF93DF931F921F92CDB7DEB79A83898305
:100380005C01A4E0AA0EB11C812C99249394F50180
:10039000D40111921197E9F7DC01AD5FBE4FEDE991
:1003A000F1E0EC931197FC93FC01EF5FFE4F60834B
:1003B0003197708331971082B397DC011396FC93C9
:1003C000EE931297BD96718360833296108260918E
:1003D000140570911505FC017183608389819A81F0
:1003E000FC01EB5FFE4F51834083329631832083C3
:1003F0003F962FEF3FEF3183208332961182108298
:100400003497118300833497D182C0823296F1826F
:10041000E08220911605309117052F5F3F4F3093F2
:1004200017052093160520911405309115052F5FAF
:100430003F4F30931505209314053E9721E020830C
:100440004330510541F440E155E06EE377E1CE01E0
:100450000196F6D51AC04230510569F4FC01EA5EF6
:10046000FE4F118300834EE055E060E677E1CE0158
:10047000019638D60AC04130510539F44CE055E0B8
:1004800062E877E1CE010196DBD5E981FA818081CE
:1004900091810F900F90DF91CF911F910F91FF905D
:1004A000EF90DF90CF90BF90AF909F908F90089586
:1004B000CF92DF92EF92FF920F931F93CF93DF9330
:1004C000E90120911605309117052031310541F1E0
:1004D00020912206222371F0A4E4B7E0E1E0F0E0ED
:1004E0003C91332349F03196AE5DBE4FE031F105CA
:1004F000B9F702C0E0E0F0E0670178018E019A01EF
:10050000AB01BC0182E291E0E89FD001E99FB00D10
:10051000F89FB00D1124CD01825E9A4F1FDF02C0FB
:1005200080E090E0DF91CF911F910F91FF90EF90CD
:10053000DF90CF9008951092170510921605109233
:100540001905109218051092150510921405EEE188
:10055000F5E02EE337E182E291E0DF01AC011D928C
:1005600041505040E1F7DF01AC5FBE4F1C92118259
:100570001082EE5DFE4FE217F30779F7ACE7B2E0C9
:1005800080E090E029E2FD01322F11923A95E9F7DF
:10059000289FF001299FF00D1124E458FD4F16A269
:1005A00001969183808399968031910561F7089532
:1005B00081E090E09FD6EF92FF920F931F93CF932D
:1005C000E0911805F0911905EF2B09F45DC0F8943E
:1005D0006330710549F4E0911C05F0911D05E55F5C
:1005E000FE4FA2E0A08328C06230710589F4E0913B
:1005F0001C05F0911D05DF01A55FBE4FC4E0CC9343
:10060000EA5EFE4FD901AE0DBF1DB183A08314C0B9
:100610006130710549F4E0911C05F0911D05E55F1D
:10062000FE4FA3E0A08308C0E0911C05F0911D05DA
:10063000E55FFE4FA1E0A083E0911C05F0911D0550
:10064000DF01A75FBE4F11969C938E93149711966E
:100650007C936E93129611965C934E931D96119611
:100660003C932E93129711961C930E93E05FFE4FCE
:10067000F182E082B5DDE0911C05F0911D05E45F9B
:10068000FE4F8081918108C0EE24EA94FE2C0FEF8A
:100690001FEF2FEF3FEF0CDFCF911F910F91FF90D6
:1006A000EF900895EF92FF920F931F93AB01EE240A
:1006B000EA94FE2C0FEF1FEF2FEF3FEF63E070E0A7
:1006C0007ADF1F910F91FF90EF900895EF92FF92C4
:1006D0000F931F937A01A8012E153F0508F068DFDC
:1006E00089019A01AB0162E070E065DF1F910F9113
:1006F000FF90EF900895EF92FF920F931F938091D8
:10070000180590911905892BF1F0F89480911C053A
:1007100090911D05FC01E75FFE4F2CE431E0318331
:100720002083349724E030E0318320833296118295
:10073000108256DDE0911C05F0911D05E45FFE4F2F
:10074000808191810EC0EE24EA94FE2C0FEF1FEF02
:100750002FEF3FEF40E050E064E070E08CE491E088
:10076000A7DE1F910F91FF90EF90089580911805DB
:1007700090911905892B19F1F89480911C0590919D
:100780001D05FC01EB5FFE4F2081318122303105D8
:1007900081F43B9620813181389640815181241B20
:1007A000350BDC01AA5EBE4F11963C932E9311824D
:1007B0001082FC01E55FFE4F85E0808311CD089536
:1007C0008091180590911905892B09F449C0F89476
:1007D00080911C0590911D05FC01EB5FFE4F20816F
:1007E00031812330310519F43696108238C0FC016E
:1007F000EB5FFE4F208131812230310559F5739630
:10080000408151813697208131814217530739F059
:10081000209110053091110512161306B4F4FC0155
:10082000E05FFE4F20813181389640815181241B49
:10083000350BDC01AA5EBE4F11963C932E931182BC
:1008400010823D9785E080830AC0FC01E55FFE4F82
:10085000108205C0FC01E55FFE4F85E08083C0CCBF
:100860000895F89410928000E1E8F0E01082109270
:1008700085001092840080E792E090938900809335
:100880008800808188608083808184608083EFE637
:10089000F0E080818260808310929000E1E9F0E0D6
:1008A0001082109295001092940083E294EF90933E
:1008B0009900809398008081886080838081846023
:1008C000808382E080937100789408951F920F9244
:1008D0000FB60F9211240BB60F922F933F934F93A5
:1008E0005F936F937F938F939F93AF93BF93EF9398
:1008F000FF9380911C0590911D05FC01EB5FFE4F5D
:10090000208131812230310531F4739680819181CB
:1009100001969183808380911A0590911B05019621
:1009200090931B0580931A05A0910E05B0910F05B9
:10093000CD01019792F0AA0FBB1FA05AB84E20E636
:1009400037E1FE91EE91EA5EFE4F80819181019741
:1009500091838083A217B307A1F732DFFF91EF9154
:10096000BF91AF919F918F917F916F915F914F91C7
:100970003F912F910F900BBE0F900FBE0F901F90C5
:1009800018951F920F920FB60F9211248F939F9379
:100990008091120590911305019690931305809311
:1009A00012059F918F910F900FBE0F901F90189579
:1009B0000F931F93CF93DF9380911C0590911D059A
:1009C000FC01E45EFE4F208131812150310949E272
:1009D000429FF001439FF00D1124E458FD4F24A1E4
:1009E00035A1232BD9F5FC01E45EFE4F2081318136
:1009F00021503109429FF001439FF00D1124E4582A
:100A0000FD4F22813381232B41F5DC01A45EBE4FD3
:100A10002D913C91119721503109429FF001439F44
:100A2000F00D1124E458FD4F93838283FC01EC5FA9
:100A3000FE4F23E020832D913C91215031097C967B
:100A400080819181429FF001439FF00D1124E45871
:100A5000FD4F90A787A321DC09C1AADDFC01E45E5C
:100A6000FE4F208131812150310949E2429FF0013E
:100A7000439FF00D1124E458FD4F22813381232B35
:100A800009F096DDFC01E45EFE4F808191810197C3
:100A900029E2289FF001299FF00D1124E458FD4F11
:100AA000C4A1D5A121970AF4CEC019E201E020919A
:100AB0001C0530911D05C901845E9E4FDC014D91DE
:100AC0005C9141505109FE013296EE0FFF1F149FB9
:100AD000D001159FB00D1124AE0FBF1FA458BD4FFC
:100AE0000D90BC91A02DAC5FBE4F0C93DC014D91DD
:100AF0005C9141505109149FD001159FB00D1124F4
:100B0000AE0FBF1FA458BD4F6D917C91A901405EEF
:100B10005E4FDA014D915C91DB01A05EBE4F4D93BB
:100B20005C93DC014D915C91119741505109149FE8
:100B3000C001159F900D1124E80FF91FE458FD4FD7
:100B40000190F081E02DEB5FFE4F80819181039752
:100B5000C1F4FD0140815181CE010296880F991F99
:100B600041505109149F9001159F300D1124820F9F
:100B7000931F40E155E06EE377E184589D4F60D2CA
:100B800036C0F901E45EFE4F408151814150510968
:100B9000FE013296EE0FFF1F149FC001159F900DAE
:100BA0001124E80FF91FE458FD4F0190F081E02D6A
:100BB000EB5FFE4F808191810197C9F4F901E45EFA
:100BC000FE4F40815181CE010296880F991F4150FE
:100BD0005109149F9001159F300D1124820F931F0E
:100BE0004CE055E062E877E184589D4F29D2A0910E
:100BF0001C05B0911D05A45EBE4F2D913C9111972F
:100C000021503109FE013296EE0FFF1F129FC001E5
:100C1000139F900D1124E80FF91FE458FD4F118226
:100C200010828D919C910197189FF001199FF00DF2
:100C30001124E458FD4F84A195A1019795A384A3A5
:100C400021970AF034CFE0911C05F0911D05E45E78
:100C5000FE4F80819181019729E2289FF001299F11
:100C6000F00D1124E458FD4F10A617A2DF91CF918B
:100C70001F910F91089580911C0590911D05FC0115
:100C8000E25EFE4F208131812150310949E2429FCD
:100C9000F001439FF00D1124E458FD4F2281338170
:100CA000232B09F5FC01EC5FFE4F23E020837A96AD
:100CB000208131818081918121503109E9E2E29FD7
:100CC000A001E39F500D112440565D4F0197E89F0E
:100CD000B001E99F700D112460587D4F8CE195E0C3
:100CE000AFD1DBCA0895FC01E25EFE4F2081318165
:100CF0002150310949E2429FD001439FB00D112498
:100D0000A458BD4F12960D90BC91A02DAC5FBE4F64
:100D100021E02C932081318121503109429FD00163
:100D2000439FB00D1124A458BD4F97962D913C912F
:100D30009897DC01A05EBE4F11963C932E932081C4
:100D4000318121503109429FF001439FF00D112460
:100D5000E458FD4F0280F381E02DEB5FFE4F2081D0
:100D6000318123303105A1F4FC01E25EFE4F208188
:100D7000318121503109429FC001439F900D1124C0
:100D800040E155E06EE377E182589D4F59D12CC088
:100D9000FC01E25EFE4F208131812150310949E2A0
:100DA000429FF001439FF00D1124E458FD4F028053
:100DB000F381E02DEB5FFE4F208131812130310541
:100DC00099F4FC01E25EFE4F20813181215031090E
:100DD000429FC001439F900D11244CE055E062E812
:100DE00077E182589D4F2CD180911C0590911D0573
:100DF000FC01E25EFE4F208131812150310949E240
:100E0000429FF001439FF00D1124E458FD4F1382DF
:100E10001282FC01E45EFE4F808191810197489F20
:100E2000F001499FF00D1124E458FD4F10A617A2C0
:100E30000895DF92EF92FF920F931F93CF93DF936A
:100E40008091180590911905892B09F0DDC08091DA
:100E5000160590911705892B09F4D6C0F89481E006
:100E600090E0909319058093180517DADD24D39448
:100E7000E0911C05F0911D05DF01A55FBE4F1C929E
:100E80008281938190935F1780935E1754D9C091AC
:100E90001C05D0911D0580915E1790915F179B8373
:100EA0008A83FE01E55FFE4FE0818E2F90E0FC011A
:100EB0003197E830F105E0F68827EE58FF4F8F4F65
:100EC00011C2FE01E95FFE4F40815181329760817E
:100ED0007181349680819181EE24EA94FE2C0FEF8B
:100EE0001FEF2FEF3FEFE4DAC45FDE4F9983888373
:100EF000BFCFFE01E95FFE4F408151813296808174
:100F00009181EE24EA94FE2C0FEF1FEF2FEF3FEFBD
:100F100063E070E0CDDAC45FDE4F99838883A8CFA9
:100F2000FE01E05FFE4FE080F1803296008111818A
:100F30003296208131813D97408151813296808166
:100F4000918162E070E0B4DAC45FDE4F99838883F8
:100F50008FCFFE01E95FFE4F408151813296808143
:100F60009181EE24EA94FE2C0FEF1FEF2FEF3FEF5D
:100F700061E070E09DDAC45FDE4F9983888378CFAB
:100F8000FE01EC5FFE4FD082319680819181039704
:100F900041F440E155E06EE377E18CE195E050D01B
:100FA0001CC0FE01EB5FFE4F80819181029741F4EE
:100FB0004EE055E060E677E18CE195E093D00DC01E
:100FC000CB5FDE4F88819981019739F44CE055E081
:100FD00062E877E18CE195E033D05FD949CFE8DC76
:100FE00047CF49DE45CFFE01EC5FFE4F10821982EC
:100FF0001882809116059091170501979093170517
:10100000809316054AD934CFDF91CF911F910F916C
:10101000FF90EF90DF9008950B9A13980C9A149814
:101020000D9A15980E9A16980F9A17981ADC83DA6B
:1010300062DB61E070E085E491E034DBFACE089594
:10104000CF93DF93EA01288139812F303105E9F010
:10105000E881F9819F012150310962F0EE0FFF1FF5
:10106000E60FF71FDB013291229133832283EA17C7
:10107000FB07C9F7FC0180819181FB01918380838B
:1010800088819981019699838883DF91CF91089512
:10109000AC01DB018D919C911197892B01F1ED91B0
:1010A000FC911197E150F048EE0FFF1FE40FF51F80
:1010B000808191812D913C911197F901E150F04887
:1010C000EE0FFF1FE40FF51F118210822D913C914E
:1010D00011972150310911963C932E93089580E089
:1010E00090E00895CF92DF92EF92FF920F931F93BB
:1010F000CF93DF936A01EA01288139812F303105CE
:1011000009F44AC02881398121503109FC0100814C
:101110001181F901EE0FFF1FDB01AE0FBF1F4D91D3
:101120005C9133233CF1D801AA5EBE4FED90FC9058
:10113000DA01AA5EBE4F4D915C91E416F506D4F03B
:10114000E60FF71F0A5E1E4FA081B181B383A28311
:1011500021503109B291A2912F3F4FEF340751F046
:10116000E801E880F980AA5EBE4F4D915C91E416DB
:10117000F50654F7FC01808191812F5F3F4F220FCC
:10118000331FFB01E20FF31F91838083E601888107
:101190009981019699838883DF91CF911F910F9157
:1011A000FF90EF90DF90CF900895FB012081318177
:1011B000232B61F020813181F901E150F048EE0FDD
:1011C000FF1FE80FF91F80819181089580E090E072
:1011D0000895B3C808950F931F93CF93DF9351D011
:1011E00060E070E089EE98E05DDAC0E0D0E010C029
:1011F000BE0189EE98E056DAC031D1054CF0892B5A
:1012000039F080E092E050D088E192E04DD095D85E
:101210002196C032D10561F7A9DA00E010E021E0A3
:1012200030E042E050E060E070E089EE98E04EDAB5
:10123000C1E0D0E00C2F1D2F2196AE014F5F5F4F14
:101240009E0160E070E089EE98E040DA9E01215056
:101250003109203131054CF0892B39F080E092E0E2
:1012600023D088E192E020D068D8C032D10511F7B0
:101270008AE492E019D061D8DF91CF911F910F914C
:101280000895E1ECF0E0808188618083A2ECB0E019
:101290008C9186608C9387E68093C4001092C50081
:1012A0008081806880830895CF93DF93FC01208143
:1012B000222369F0DC011196E0ECF0E0C6ECD0E00E
:1012C000908195FFFDCF28832D912111F9CFE0EC7E
:1012D000F0E0808185FFFDCF8AE08093C600DF913A
:1012E000CF910895EE0FFF1F881F8BBF0790F691D7
:0812F000E02D1994F894FFCFE2
:1012F800546F6F206D616E79207461736B73206316
:101308007265617465642100746573745F746F6FCE
:101318005F6D616E795F7461736B7320202020208C
:1013280020202020202020202020202020202020B5
:101338002020204641494C454400746573745F740D
:101348006F6F5F6D616E795F7461736B73202020BE
:101358002020202020202020202020202020202085
:0C13680020202020205041535345440019
:00000001FF
