:100000007BC000009AC0000098C0000096C00000AD
:1000100094C0000092C0000090C000008EC000009C
:100020008CC000008AC0000088C0000086C00000AC
:1000300084C0000082C0000080C000007EC00000BC
:100040007CC000009FC4000078C0000076C00000A3
:1000500074C0000072C0000070C000006EC00000DC
:100060006CC000006AC0000068C0000066C00000EC
:1000700064C0000062C0000060C000005EC00000FC
:10008000E2C400005AC0000058C0000056C0000082
:1000900054C0000052C0000050C000004EC000001C
:1000A0004CC000004AC0000048C0000046C000002C
:1000B00044C0000042C0000040C000003EC000003C
:1000C0003CC000003AC0000038C0000036C000004C
:1000D00034C0000032C0000030C000002EC000005C
:1000E0002CC00000BC091A0A020AD409400A7E0A80
:1000F000780A7A0A7C0A760A11241FBECFEFD1E271
:10010000DEBFCDBF00E00CBF12E0A0E0B2E0E4E44F
:10011000F8E100E00BBF02C007900D92AE34B107CA
:10012000D9F727E1AEE4B2E001C01D92A437B207CF
:10013000E1F70E94980A0C94200C62CF0F921F9254
:100140002F923F924F925F926F927F928F929F92E7
:10015000AF92BF92CF92DF92EF92FF920F931F93D5
:100160002F933F934F935F936F937F938F939F93BF
:10017000AF93BF93CF93DF93EF93FF930FB70F939B
:10018000FCB7FF93EDB7FEB7E0935217F093531708
:10019000E0913017F0913117EDBFFEBFFF91FCBF2A
:1001A0000F910FBFFF91EF91DF91CF91BF91AF9171
:1001B0009F918F917F916F915F914F913F912F917F
:1001C0001F910F91FF90EF90DF90CF90BF90AF9075
:1001D0009F908F907F906F905F904F903F902F9067
:1001E0001F900F9018950F921F922F923F924F924F
:1001F0005F926F927F928F929F92AF92BF92CF92B7
:10020000DF92EF92FF920F931F932F933F934F93A1
:100210005F936F937F938F939F93AF93BF93CF938E
:10022000DF93EF93FF930FB70F93FCB7FF93EDB7F7
:10023000FEB7E0933017F0933117E0915217F09129
:100240005317EDBFFEBFFF91FCBF0F910FBFFF9192
:10025000EF91DF91CF91BF91AF919F918F917F915E
:100260006F915F914F913F912F911F910F91FF904F
:10027000EF90DF90CF90BF90AF909F908F907F9046
:100280006F905F904F903F902F901F900F90089528
:1002900060E070E08BE79BE053C20895FFCF809150
:1002A000EA049091EB04892B51F0F894E091EC046E
:1002B000F091ED04E55FFE4F86E0808394CF0895D2
:1002C0008F929F92AF92BF92CF92DF92EF92FF9266
:1002D0000F931F93CF93DF931F921F92CDB7DEB77B
:1002E0009A8389835C01A4E0AA0EB11C812C992415
:1002F0009394F501D40111921197E9F7DC01AD5FF8
:10030000BE4FEFE4F1E0EC931197FC93FC01EF5F3B
:10031000FE4F10823197608331977083319710823E
:10032000B397DC011396FC93EE931297BE967183FC
:100330006083329610826091E6047091E704FC01BC
:100340007183608389819A81FC01EB5FFE4F518349
:1003500040833296318320833F962FEF3FEF3183E6
:100360002083329611821082349711830083349750
:10037000D182C0823296F182E0822091E8043091ED
:10038000E9042F5F3F4F3093E9042093E804209164
:10039000E6043091E7042F5F3F4F3093E70420934A
:1003A000E6043E9721E020834330510549F442EEB4
:1003B00054E06EE077E1CE0101960E94AF0A1CC0C6
:1003C0004230510571F4FC01EA5EFE4F1183008357
:1003D00040EE54E062E377E1CE0101960E94010B0A
:1003E0000BC04130510541F44EED54E064E577E136
:1003F000CE0101960E94AF0AE981FA818081918144
:100400000F900F90DF91CF911F910F91FF90EF9080
:10041000DF90CF90BF90AF909F908F900895CF9234
:10042000DF92EF92FF920F931F93CF93DF93E90137
:100430002091E8043091E9042031310541F1209107
:10044000F205222371F0A4E1B7E0E1E0F0E03C9195
:10045000332349F03196AE5DBE4FE031F105B9F777
:1004600002C0E0E0F0E0670178018E019A01AB0183
:10047000BC0182E291E0E89FD001E99FB00DF89FB6
:10048000B00D1124CD0182519B4F1ADF02C080E0D4
:1004900090E0DF91CF911F910F91FF90EF90DF904F
:1004A000CF9008951092E9041092E8041092EB04A2
:1004B0001092EA041092E7041092E604EEEEF4E0E3
:1004C0002EE037E182E291E0DF01AC011D92415064
:1004D0005040E1F7DF01AC5FBE4F1C9211821082E9
:1004E000EE5DFE4FE217F30779F7AEE4B2E080E08D
:1004F00090E029E2FD01322F11923A95E9F7289F09
:10050000F001299FF00D1124E25BFD4F16A2019628
:100510009183808399968031910561F70895479A78
:10052000479881E090E00E94200CA091E004B091F7
:10053000E104CD010197DAF0AA0FBB1FAE5CB84E03
:1005400042E357E120E030E0FE91EE91EA5EFE4F9B
:1005500080819181892B11F42F5F3F4FA417B5073C
:1005600099F7223031051CF081E090E0D8CF089552
:10057000DCDF62EE74E08EE097E10E94D70A909390
:10058000ED048093EC048091E0049091E104892BC8
:10059000E1F060EE74E082E397E10E94640BFC01FD
:1005A000EA5EFE4F80819181892B79F48091EC0481
:1005B0009091ED04892B01F560EE74E082E397E100
:1005C000F6D79093ED048093EC048091EC04909125
:1005D000ED04892B89F46EED74E084E597E1E7D7AB
:1005E0009093ED048093EC04892B31F48EEE94E02B
:1005F0009093ED048093EC04E091EC04F091ED0411
:10060000828193819093311780933017EC5FFE4F76
:1006100082E0808308956F927F928F929F92AF9233
:10062000BF92CF92DF92EF92FF920F931F93CF93DF
:10063000DF93E091EA04F091EB04EF2B09F469C039
:10064000F8946330710549F4E091EC04F091ED0405
:10065000E55FFE4F62E0608322C06230710581F485
:100660006091EC047091ED04FB01E55FFE4FA4E0A6
:10067000A0833B96B9016E0D7F1D718360830FC00F
:100680006130710549F4E091EC04F091ED04E55F0F
:10069000FE4F63E0608303C082E090E040DF609142
:1006A000EC047091ED04FB01E75FFE4F91838083C2
:1006B00032976080718051834083DB01AC5EBE4F16
:1006C000AD90BC9011973B96C080D180605F7E4F0B
:1006D000EB018880998011963C932E9311830083BF
:1006E000F982E88280DD2091EC043091ED04F9017B
:1006F000E45FFE4F808191813896B182A08232976B
:10070000D182C082329791828082399771826082D1
:1007100008C0EE24EA94FE2C0FEF1FEF2FEF3FEFFF
:100720007EDEDF91CF911F910F91FF90EF90DF90D0
:10073000CF90BF90AF909F908F907F906F900895D3
:10074000EF92FF920F931F93AB01EE24EA94FE2CDD
:100750000FEF1FEF2FEF3FEF63E070E05CDF1F91C3
:100760000F91FF90EF900895EF92FF920F931F93D8
:10077000AB01EE24EA94FE2C0FEF1FEF2FEF3FEFBB
:1007800061E070E048DF1F910F91FF90EF900895B6
:10079000EF92FF920F931F937A01A8012E153F0548
:1007A00018F083E090E0BBDE89019A01AB0162E0C2
:1007B00070E031DF1F910F91FF90EF900895EF925D
:1007C000FF920F931F938091EA049091EB04892B81
:1007D000F1F0F8948091EC049091ED04FC01E75F56
:1007E000FE4F2EE431E031832083349724E030E063
:1007F00031832083329611821082F5DCE091EC0483
:10080000F091ED04E45FFE4F808191810EC0EE24F3
:10081000EA94FE2C0FEF1FEF2FEF3FEF40E050E088
:1008200064E070E08EE491E0FADD1F910F91FF909B
:10083000EF9008958091EA049091EB04892B19F1CF
:10084000F8948091EC049091ED04FC01EB5FFE4F75
:10085000208131812230310581F43B962081318124
:10086000389640815181241B350BDC01AA5EBE4FB6
:1008700011963C932E9311821082FC01E55FFE4F8E
:1008800085E08083B0CC08958091EA049091EB04D8
:10089000892B09F441C0F8948091EC049091ED0407
:1008A000FC01EB5FFE4F208131812330310521F4C3
:1008B00036968AE080832FC0FC01EB5FFE4F2081DB
:1008C00031812230310511F573964081518136977F
:1008D000208131814217530718F084E090E01FDE39
:1008E0002091E2043091E304121613064CF4FC014B
:1008F000EA5EFE4F118210823B9785E080830BC039
:10090000FC01E55FFE4F8AE0808305C0FC01E55FE6
:10091000FE4F85E0808367CC0895F89410928000A4
:10092000E1E8F0E01082109285001092840080E7E8
:1009300092E0909389008093880080818860808312
:10094000808184608083EFE6F0E080818260808334
:1009500010929000E1E9F0E0108210929500109260
:10096000940083E294EF90939900809398008081A3
:100970008860808380818460808382E080937100BE
:10098000789408951F920F920FB60F9211240BB610
:100990000F922F933F934F935F936F937F938F9318
:1009A0009F93AF93BF93EF93FF938091EC0490914B
:1009B000ED04FC01EB5FFE4F2081318122303105D7
:1009C00031F4739680819181019691838083809127
:1009D0002E1790912F17019690932F1780932E1713
:1009E000A091E004B091E104CD010197C2F0AA0FFB
:1009F000BB1FAE5CB84E42E357E19E918E91FC0165
:100A0000EA5EFE4F20813181121613062CF480819C
:100A10009181019791838083A417B50771F734DF23
:100A2000FF91EF91BF91AF919F918F917F916F91C6
:100A30005F914F913F912F910F900BBE0F900FBE82
:100A40000F901F9018951F920F920FB60F921124BE
:100A50008F939F938091E4049091E5040196909385
:100A6000E5048093E4049F918F910F900FBE0F9047
:100A70001F901895CF92DF92EF92FF920F931F93E2
:100A8000CF93DF938091EC049091ED04FC01E45E40
:100A9000FE4F208131812150310949E2429FF0010E
:100AA000439FF00D1124E25BFD4F24A135A1232BC0
:100AB00009F03DC0FC01E45EFE4F208131812150F0
:100AC0003109429FF001439FF00D1124E25BFD4F7D
:100AD00022813381232B41F5DC01A45EBE4F2D9191
:100AE0003C91119721503109429FF001439FF00D35
:100AF0001124E25BFD4F93838283FC01EC5FFE4F88
:100B000023E020832D913C91215031097C968081F6
:100B10009181429FF001439FF00D1124E25BFD4F54
:100B200090A787A325DD37C186E090E0F8DCFC01C3
:100B3000E45EFE4F208131812150310949E2429F1C
:100B4000F001439FF00D1124E25BFD4F22813381C0
:100B5000232B19F086E090E0E2DCFC01E45EFE4F1E
:100B6000208131812150310949E2429FF001439FA8
:100B7000F00D1124E25BFD4FC4A1D5A121970AF429
:100B8000FAC0E12CF12C19E201E0CC24C394D12C61
:100B90002091EC043091ED04C901845E9E4FDC018C
:100BA0004D915C9141505109FE013296EE0FFF1FAD
:100BB000149FD001159FB00D1124AE0FBF1FA25B73
:100BC000BD4F0D90BC91A02DAC5FBE4F0C93DC01CE
:100BD0004D915C9141505109149FD001159FB00D6A
:100BE0001124AE0FBF1FA25BBD4F6D917C91A90177
:100BF000405E5E4FDA014D915C91DB01A05EBE4F1D
:100C00004D935C93DC014D915C91119741505109DA
:100C1000149FC001159F900D1124E80FF91FE25B8E
:100C2000FD4F0190F081E02DEB5FFE4F80819181BF
:100C30000397D1F4FD0140815181CE010296880FC6
:100C4000991F41505109149F9001159F300D112497
:100C5000820F931F42EE54E06EE077E1825B9D4F7E
:100C60007ED4EC2CFD2C36C0F901E45EFE4F4081B1
:100C7000518141505109FE013296EE0FFF1F149F22
:100C8000C001159F900D1124E80FF91FE25BFD4F85
:100C90000190F081E02DEB5FFE4F80819181019703
:100CA000C9F4F901E45EFE4F40815181CE01029604
:100CB000880F991F41505109149F9001159F300DC5
:100CC0001124820F931F4EED54E064E577E1825BBF
:100CD0009D4F45D4A091EC04B091ED04A45EBE4FAD
:100CE0002D913C91119721503109FE013296EE0F62
:100CF000FF1F129FC001139F900D1124E80FF91FD1
:100D0000E25BFD4F118210828D919C9111970197AA
:100D1000189FF001199FF00D1124E25BFD4F84A193
:100D200095A1019795A384A321970AF031CF209133
:100D3000EC043091ED04FD0180819181019749E23D
:100D4000489FF001499FF00D1124E25BFD4F10A672
:100D500017A2EF2801F1F901EB5FFE4F808191812D
:100D60000197C9F44EED54E064E577E18CEE94E030
:100D7000F6D3FEDB10C0FC01E45EFE4F8081918162
:100D8000019729E2289FF001299FF00D1124E25BD1
:100D9000FD4F10A617A2DF91CF911F910F91FF90E9
:100DA000EF90DF90CF900895CF938091EC049091D5
:100DB000ED04FC01E25EFE4F2081318121503109BA
:100DC00049E2429FF001439FF00D1124E25BFD4F89
:100DD00022813381232B09F5FC01EC5FFE4F23E0D8
:100DE00020837A962081318180819181215031093F
:100DF000E9E2E29FA001E39F500D11244E585D4FA0
:100E00000197E89FB001E99F700D11246E5A7D4F44
:100E10008CEE94E0A4D3ACDBDDC0FC01E25EFE4FBF
:100E2000208131812150310949E2429FD001439F05
:100E3000B00D1124A25BBD4F12960D90BC91A02D58
:100E4000AC5FBE4F21E02C932081318121503109CC
:100E5000429FD001439FB00D1124A25BBD4F9796D6
:100E60002D913C919897DC01A05EBE4F11963C936A
:100E70002E932081318121503109429FF001439FFF
:100E8000F00D1124E25BFD4F0280F381E02DEB5F5A
:100E9000FE4F208131812330310509F041C0FC0132
:100EA000E25EFE4F2081318121503109C9E2C29FAB
:100EB000C001C39F900D112442EE54E06EE077E133
:100EC000805B9D4F4CD38091EC049091ED04FC012C
:100ED000E25EFE4F2081318121503109C29FF00135
:100EE000C39FF00D1124E25BFD4F13821282FC01BF
:100EF000E45EFE4F2081318121503109C29FF00113
:100F0000C39FF00D1124E25BFD4F10A617A2FC0158
:100F1000EB5FFE4F80819181019709F05BC02DC08E
:100F2000FC01E25EFE4F208131812150310949E20E
:100F3000429FF001439FF00D1124E25BFD4F0280C0
:100F4000F381E02DEB5FFE4F2081318121303105AF
:100F5000E9F4FC01E25EFE4F20813181215031092C
:100F6000429FC001439F900D11244EED54E064E573
:100F700077E1805B9D4FF3D209C04EED54E064E50C
:100F800077E18CEE94E0EBD2F3DA24C08091EC04AC
:100F90009091ED04FC01E25EFE4F208131812150F1
:100FA000310949E2429FF001439FF00D1124E25BB9
:100FB000FD4F13821282FC01E45EFE4F808191811D
:100FC0000197489FF001499FF00D1124E25BFD4F0E
:100FD00010A617A2CF910895CF92DF92EF92FF92C1
:100FE0000F931F93CF93DF938091EC049091ED04C6
:100FF000FC01E45EFE4F208131812150310949E23C
:10100000429FF001439FF00D1124E25BFD4F24A1AC
:1010100035A1232B31F5FC01E45EFE4F20813181A7
:1010200021503109429FF001439FF00D1124E25BF2
:10103000FD4F22813381232B89F4FC01E45EFE4FB6
:101040002081318121503109429FF001439FF00DF1
:101050001124E25BFD4F9383828337C186E090E0E9
:101060005EDAFC01E45EFE4F2081318121503109BE
:1010700049E2429FF001439FF00D1124E25BFD4FD6
:1010800022813381232B19F086E090E048DAFC01BD
:10109000E45EFE4F208131812150310949E2429FB7
:1010A000F001439FF00D1124E25BFD4FC4A1D5A1D7
:1010B00021970AF4FAC0E12CF12C19E201E0CC24CA
:1010C000C394D12C2091EC043091ED04C901845ECD
:1010D0009E4FDC014D915C9141505109FE013296C9
:1010E000EE0FFF1F149FD001159FB00D1124AE0FFE
:1010F000BF1FA25BBD4F0D90BC91A02DAC5FBE4F3A
:101100000C93DC014D915C9141505109149FD00129
:10111000159FB00D1124AE0FBF1FA25BBD4F6D9187
:101120007C91A901405E5E4FDA014D915C91DB013B
:10113000A05EBE4F4D935C93DC014D915C91119785
:1011400041505109149FC001159F900D1124E80FC3
:10115000F91FE25BFD4F0190F081E02DEB5FFE4F48
:10116000808191810397D1F4FD0140815181CE01AD
:101170000296880F991F41505109149F9001159FA5
:10118000300D1124820F931F42EE54E06EE077E1A0
:10119000825B9D4FE4D1EC2CFD2C36C0F901E45E5E
:1011A000FE4F4081518141505109FE013296EE0FB0
:1011B000FF1F149FC001159F900D1124E80FF91F08
:1011C000E25BFD4F0190F081E02DEB5FFE4F8081EF
:1011D00091810197C9F4F901E45EFE4F408151818C
:1011E000CE010296880F991F41505109149F90011A
:1011F000159F300D1124820F931F4EED54E064E5CE
:1012000077E1825B9D4FABD1A091EC04B091ED04EE
:10121000A45EBE4F2D913C91119721503109FE01E2
:101220003296EE0FFF1F129FC001139F900D1124E5
:10123000E80FF91FE25BFD4F118210828D919C91A6
:1012400011970197189FF001199FF00D1124E25B8F
:10125000FD4F84A195A1019795A384A321970AF03E
:1012600031CF2091EC043091ED04FD01808191811A
:10127000019749E2489FF001499FF00D1124E25B7C
:10128000FD4F10A617A2EF2801F1F901EB5FFE4F09
:10129000808191810197C9F44EED54E064E577E1D6
:1012A0008CEE94E05CD164D910C0FC01E45EFE4F8A
:1012B00080819181019729E2289FF001299FF00DFB
:1012C0001124E25BFD4F10A617A2DF91CF911F9171
:1012D0000F91FF90EF90DF90CF900895CF92DF9223
:1012E000EF92FF920F931F93CF93DF938091EA04C5
:1012F0009091EB04892B09F012C18091E804909140
:10130000E904892B09F40BC1F89481E090E09093F3
:10131000EB048093EA042CD9DD24D3940F2EF5E05E
:10132000CF2EF02DE091EC04F091ED04DF01A55FEC
:10133000BE4F1C9282819381909331178093301716
:101340000E949E00C091EC04D091ED048091301772
:10135000909131179B838A83FE01E55FFE4FE08108
:101360008E2F90E0FC013197EA30F105D8F68827FE
:10137000EE58FF4F8F4F5CC2FE01E95FFE4F408188
:101380005181329760817181349680819181EE2400
:10139000EA94FE2C0FEF1FEF2FEF3FEF40D8C45F12
:1013A000DE4F99838883BECFFE01E05FFE4FE08071
:1013B000F1803296008111813296208131813D97F2
:1013C0004081518132968081918162E070E027D81E
:1013D000C45FDE4F998388838091EC049091ED0483
:1013E000FC01EB5FFE4F208131812130310509F096
:1013F00099CF3F9620813181232B09F093CF3997E4
:10140000C0823EC0FE01E95FFE4F408151813296AD
:1014100080819181EE24EA94FE2C0FEF1FEF2FEFD5
:101420003FEF61E070E00E940F02C45FDE4F9983DE
:10143000888378CFFE01E95FFE4F4081518132966B
:1014400080819181EE24EA94FE2C0FEF1FEF2FEFA5
:101450003FEF63E070E00E940F02C45FDE4F9983AC
:1014600088838091EC049091ED04FC01EB5FFE4FCA
:10147000208131812330310509F454CF3696C08262
:101480008091EC049091ED04FC01EC5FFE4FD08262
:101490003196208131812330310541F442EE54E010
:1014A0006EE077E18CEE94E05AD01EC0FC01EB5F59
:1014B000FE4F208131812230310541F440EE54E06D
:1014C00062E377E18CEE94E09CD00EC0FC01EB5F10
:1014D000FE4F80819181019739F44EED54E064E52F
:1014E00077E18CEE94E03BD043D81CCF1ED81ACFC6
:1014F000C1DA18CF71DD16CF57DC14CFFE01EC5FD7
:10150000FE4F1082198218828091E8049091E904BC
:1015100001979093E9048093E8042AD803CFDF91E0
:10152000CF911F910F91FF90EF90DF90CF90089592
:101530000B9A13980C9A14980D9A15980E9A16985F
:101540000F9A17983F9A4798E8D90E94520237D9C4
:101550006AE270E088E491E0F3D8C0CE0895CF93BA
:10156000DF93EA01288139812F303105E9F0E881E4
:10157000F9819F012150310962F0EE0FFF1FE60F44
:10158000F71FDB013291229133832283EA17FB0795
:10159000C9F7FC0180819181FB019183808388815F
:1015A0009981019699838883DF91CF910895AC0149
:1015B000DB018D919C911197892B01F1ED91FC91AB
:1015C0001197E150F048EE0FFF1FE40FF51F8081E7
:1015D00091812D913C911197F901E150F048EE0F66
:1015E000FF1FE40FF51F118210822D913C9111977E
:1015F0002150310911963C932E93089580E090E09C
:101600000895CF92DF92EF92FF920F931F93CF93A3
:10161000DF936A01EA01288139812F30310509F40D
:101620004AC02881398121503109FC010081118192
:10163000F901EE0FFF1FDB01AE0FBF1F4D915C9153
:1016400033233CF1D801AA5EBE4FED90FC90DA0145
:10165000AA5EBE4F4D915C91E416F506D4F0E60FFC
:10166000F71F0A5E1E4FA081B181B383A283215070
:101670003109B291A2912F3F4FEF340751F0E801A9
:10168000E880F980AA5EBE4F4D915C91E416F506A4
:1016900054F7FC01808191812F5F3F4F220F331F50
:1016A000FB01E20FF31F91838083E601888199811A
:1016B000019699838883DF91CF911F910F91FF90BD
:1016C000EF90DF90CF900895FB0120813181232B93
:1016D00061F020813181F901E150F048EE0FFF1FE8
:1016E000E80FF91F80819181089580E090E00895CE
:1016F0000C944F0108950F931F93CF93DF936BD0FA
:1017000060E070E088E79BE01BD8C0E0D0E011C04B
:10171000BE0188E79BE014D8C031D10554F0892B75
:1017200041F080E092E064D088E192E061D00E94D4
:101730004F012196C032D10559F77CD860E070E0A6
:1017400088E79BE00E94A003C0E0D0E012C0BE0189
:1017500088E79BE00E94A003C031D10554F0892B9B
:1017600041F080E092E044D088E192E041D00E94D4
:101770004F012196C032D10551F75CD8C0E0D0E0CE
:10178000C0FD0BC08E0121E030E04FE050E0BE0113
:1017900088E79BE00E94C80305C0BE0188E79BE084
:1017A0000E94B403C031D10554F0892B41F080E090
:1017B00092E01ED088E192E01BD00E944F0121965A
:1017C000C032D105E9F683E392E012D0DF91CF91E8
:1017D0001F910F910895F894E1ECF0E08081886109
:1017E000808387E68093C4001092C50078940895A2
:1017F000CF93DF93F894FC012081222369F0DC0170
:101800001196E0ECF0E0C6ECD0E0908195FFFDCFC2
:1018100028832D912111F9CFE0ECF0E0808185FF44
:10182000FDCF8AE08093C6007894DF91CF91089530
:10183000EE0FFF1F881F8BBF0790F691E02D1994C4
:04184000F894FFCF4A
:10184400546F6F206D616E79207461736B732063C4
:101854007265617465642100746573745F746F6F7D
:101864005F6D616E795F7461736B73204641494C9F
:10187400454400746573745F746F6F5F6D616E7956
:0E1884005F7461736B732050415353454400F1
:00000001FF
