S012000050726F6A656374325F322E7372656378
S11300007BC000009AC0000098C0000096C00000A9
S113001094C0000092C0000090C000008EC0000098
S11300208CC000008AC0000088C0000086C00000A8
S113003084C0000082C0000080C000007EC00000B8
S11300407CC0000009C5000078C0000076C0000034
S113005074C0000072C0000070C000006EC00000D8
S11300606CC000006AC0000068C0000066C00000E8
S113007064C0000062C0000060C000005EC00000F8
S11300804CC500005AC0000058C0000056C0000013
S113009054C0000052C0000050C000004EC0000018
S11300A04CC000004AC0000048C0000046C0000028
S11300B044C0000042C0000040C000003EC0000038
S11300C03CC000003AC0000038C0000036C0000048
S11300D034C0000032C0000030C000002EC0000058
S11300E02CC00000F2090A0A3A0A210A510A880AB5
S11300F0820A840A860A800A11241FBECFEFD1E245
S1130100DEBFCDBF00E00CBF12E0A0E0B2E0E6E14C
S1130110F7E100E00BBF02C007900D92A030B107D9
S1130120D9F727E1A0E0B2E001C01D92A832B207DE
S1130130E1F70E94A10A0C94890B62CF0F921F92DF
S11301402F923F924F925F926F927F928F929F92E3
S1130150AF92BF92CF92DF92EF92FF920F931F93D1
S11301602F933F934F935F936F937F938F939F93BB
S1130170AF93BF93CF93DF93EF93FF930FB70F9397
S1130180FCB7FF93EDB7FEB7E0930617F09307179C
S1130190E091E416F091E516EDBFFEBFFF91FCBFC0
S11301A00F910FBFFF91EF91DF91CF91BF91AF916D
S11301B09F918F917F916F915F914F913F912F917B
S11301C01F910F91FF90EF90DF90CF90BF90AF9071
S11301D09F908F907F906F905F904F903F902F9063
S11301E01F900F9018950F921F922F923F924F924B
S11301F05F926F927F928F929F92AF92BF92CF92B3
S1130200DF92EF92FF920F931F932F933F934F939D
S11302105F936F937F938F939F93AF93BF93CF938A
S1130220DF93EF93FF930FB70F93FCB7FF93EDB7F3
S1130230FEB7E093E416F093E516E0910617F0910B
S11302400717EDBFFEBFFF91FCBF0F910FBFFF91DA
S1130250EF91DF91CF91BF91AF919F918F917F915A
S11302606F915F914F913F912F911F910F91FF904B
S1130270EF90DF90CF90BF90AF909F908F907F9042
S11302806F905F904F903F902F901F900F90089524
S1130290169A1698FDCF139A139836D3FCCF149A56
S11302A0149832D3FCCF159A15982ED3FCCF4CD486
S11302B0179A1798C0E0D0E005C065E470E081E0CB
S11302C090E084D42196179A1798C83E83E0D80703
S11302D0C9F7F3CF0F931F9300E010E029E030E05B
S11302E04AE050E061E070E08BE491E0BBD201E0D1
S11302F010E029E030E04AE050E062E070E08FE492
S113030091E0B0D202E010E029E030E04AE050E0B1
S113031062E070E083E591E0A5D265E070E088E4F6
S113032091E08CD266E070E087E591E073D263E0FF
S113033070E083E591E06ED264E070E088E491E0DF
S11303407DD204D01F910F910895FFCF80919E0418
S113035090919F04892B51F0F894E091A004F091BE
S1130360A104E55FFE4F86E080833DCF08958F9220
S11303709F92AF92BF92CF92DF92EF92FF920F9330
S11303801F93CF93DF931F921F92CDB7DEB79A834B
S113039089835C01A4E0AA0EB11C812C9924939456
S11303A0F501D40111921197E9F7DC01AD5FBE4F5D
S11303B0E6EAF1E0EC931197FC93FC01EF5FFE4F4A
S11303C01082319760833197708331971082B3978D
S11303D0DC011396FC93EE931297BE9671836083AF
S11303E03296108260919A0470919B04FC0171838F
S11303F0608389819A81FC01EB5FFE4F51834083C6
S11304003296318320833F962FEF3FEF3183208351
S11304103296118210823497118300833497D182EB
S1130420C0823296F182E08220919C0430919D0436
S11304302F5F3F4F30939D0420939C0420919A0496
S113044030919B042F5F3F4F30939B0420939A0479
S11304503E9721E020834330510549F446E954E0B6
S113046062EC76E1CE0101960E94B80A1CC04230CB
S1130470510571F4FC01EA5EFE4F1183008344E9E7
S113048054E066EE76E1CE0101960E940A0B0BC0A1
S11304904130510541F442E954E068E077E1CE018E
S11304A001960E94B80AE981FA81808191810F90B6
S11304B00F90DF91CF911F910F91FF90EF90DF90FC
S11304C0CF90BF90AF909F908F900895CF92DF927E
S11304D0EF92FF920F931F93CF93DF93E901209143
S11304E09C0430919D042031310541F12091A605F1
S11304F0222371F0A8ECB6E0E1E0F0E03C91332374
S113050049F03196AE5DBE4FE031F105B9F702C056
S1130510E0E0F0E0670178018E019A01AB01BC01D3
S113052082E291E0E89FD001E99FB00DF89FB00D01
S11305301124CD018E559B4F1ADF02C080E090E05C
S1130540DF91CF911F910F91FF90EF90DF90CF90AB
S1130550089510929D0410929C0410929F0410928E
S11305609E0410929B0410929A04E2EAF4E022ECB6
S113057036E182E291E0DF01AC011D92415050402E
S1130580E1F7DF01AC5FBE4F1C9211821082EE5D79
S1130590FE4FE217F30779F7A2E0B2E080E090E0C3
S11305A029E2FD01322F11923A95E9F7289FF001D3
S11305B0299FF00D1124EE5FFD4F16A20196918341
S11305C0808399968031910561F70895479A4798F9
S11305D081E090E00E94890BA0919404B09195046D
S11305E0CD010197DAF0AA0FBB1FAA51B94E46EE0E
S11305F056E120E030E0FE91EE91EA5EFE4F80810C
S11306009181892B11F42F5F3F4FA417B50799F7F8
S1130610223031051CF081E090E0D8CF0895DCDF72
S113062066E974E082EC96E1CBD79093A1048093C1
S1130630A0048091940490919504892BE1F064E9DD
S113064074E086EE96E10E946D0BFC01EA5EFE4FBB
S113065080819181892B79F48091A0049091A104E7
S1130660892B01F564E974E086EE96E1A9D79093AD
S1130670A1048093A0048091A0049091A104892BEB
S113068089F462E974E088E097E19AD79093A10431
S11306908093A004892B31F482EA94E09093A1041E
S11306A08093A004E091A004F091A104828193813D
S11306B09093E5168093E416EC5FFE4F82E080830E
S11306C008954F925F926F927F928F929F92AF9212
S11306D0BF92CF92DF92EF92FF920F931F93CF932B
S11306E0DF93E0919E04F0919F04EF2B09F479C00D
S11306F0F8946330710549F4E091A004F091A104E9
S1130700E55FFE4FA2E0A08323C06230710589F447
S1130710E091A004F091A104DF01A55FBE4FC4E005
S1130720CC93EA5EFE4FD901AE0DBF1DB183A08309
S11307300FC06130710549F4E091A004F091A10467
S1130740E55FFE4FA3E0A08303C082E090E03EDFBC
S1130750E091A004F091A104DF01A75FBE4F1196C0
S11307609C938E9314978D909C90119711967C93E3
S11307706E9312966D907C90119711965C934E93A4
S1130780CF018C5E9E4FDC01AD90BC901197129707
S1130790CD90DC901197E05FFE4F40805180EC01DA
S11307A03983288311961C930E93F182E0821BDD1A
S11307B02091A0043091A104F901E45FFE4F8081EF
S11307C091813797918280823F96B182A08232973D
S11307D0D182C0823297518240823997718260827D
S11307E008C0EE24EA94FE2C0FEF1FEF2FEF3FEF2B
S11307F06DDEDF91CF911F910F91FF90EF90DF900D
S1130800CF90BF90AF909F908F907F906F905F90AC
S11308104F900895EF92FF920F931F93AB01EE2434
S1130820EA94FE2C0FEF1FEF2FEF3FEF63E070E031
S113083048DF1F910F91FF90EF900895EF92FF9280
S11308400F931F93AB01EE24EA94FE2C0FEF1FEFDE
S11308502FEF3FEF61E070E034DF1F910F91FF90C5
S1130860EF900895EF92FF920F931F937A01A801DE
S11308702E153F0518F083E090E0A8DE89019A0167
S1130880AB0162E070E01DDF1F910F91FF90EF90CC
S11308900895EF92FF920F931F9380919E0490917D
S11308A09F04892BF1F0F8948091A0049091A10405
S11308B0FC01E75FFE4F25EA31E031832083349762
S11308C024E030E0318320833296118210828BDC65
S11308D0E091A004F091A104E45FFE4F8081918136
S11308E00EC0EE24EA94FE2C0FEF1FEF2FEF3FEF24
S11308F040E050E064E070E085EA91E0E7DD1F91BC
S11309000F91FF90EF90089580919E0490919F0421
S1130910892B19F1F8948091A0049091A104FC0111
S1130920EB5FFE4F208131812230310581F43B960B
S113093020813181389640815181241B350BDC01A3
S1130940AA5EBE4F11963C932E9311821082FC0135
S1130950E55FFE4F85E0808346CC089580919E0438
S113096090919F04892B09F441C0F8948091A004CC
S11309709091A104FC01EB5FFE4F20813181233073
S1130980310521F436968AE080832FC0FC01EB5FA9
S1130990FE4F208131812230310511F5739640815B
S11309A051813697208131814217530718F084E032
S11309B090E00CDE209196043091970412161306F1
S11309C04CF4FC01EA5EFE4F118210823B9785E0F5
S11309D080830BC0FC01E55FFE4F8AE0808305C085
S11309E0FC01E55FFE4F85E08083FDCB0895F8941C
S11309F010928000E1E8F0E01082109285001092DD
S1130A00840080E792E0909389008093880080813D
S1130A1088608083808184608083EFE6F0E0808159
S1130A208260808310929000E1E9F0E010821092DD
S1130A3095001092940083E294EF90939900809330
S1130A40980080818860808380818460808382E0D4
S1130A5080937100789408951F920F920FB60F92AD
S1130A6011240BB60F922F933F934F935F936F9381
S1130A707F938F939F93AF93BF93EF93FF93809153
S1130A80A0049091A104FC01EB5FFE4F2081318111
S1130A902230310531F473968081918101969183DE
S1130AA080838091E2169091E31601969093E31669
S1130AB08093E216A0919404B0919504CD0101971E
S1130AC0C2F0AA0FBB1FAA51B94E46EE56E19E9141
S1130AD08E91FC01EA5EFE4F2081318112161306CD
S1130AE02CF480819181019791838083A417B507A9
S1130AF071F734DFFF91EF91BF91AF919F918F9187
S1130B007F916F915F914F913F912F910F900BBE09
S1130B100F900FBE0F901F9018951F920F920FB653
S1130B200F9211248F939F9380919804909199042C
S1130B30019690939904809398049F918F910F90BC
S1130B400FBE0F901F9018958091000290910102A2
S1130B504097B1F180912802882371F081E090E000
S1130B6039E2389FF001399FF00D1124EE5FFD4FFB
S1130B7026A1211113C002C080E090E029E2289F41
S1130B80F001299FF00D1124EE5FFD4F22E026A312
S1130B9015A214A28031910541F415C0019680314B
S1130BA09105F9F680E090E0089529E2289FF0018C
S1130BB0299FF00D1124EE5FFD4F808191810895EE
S1130BC080E090E0089580E090E008952091A004F2
S1130BD03091A104F901EB5FFE4F40815181423015
S1130BE0510519F485E090E0F1DCAC014150510964
S1130BF0A9E2A49FF001A59FF00D1124EE5FFD4F23
S1130C0046A1411103C086E090E0E0DCF901E55F14
S1130C10FE4F47E0408371969183808334967183BD
S1130C206083E1CA08950F931F93CF93DF9380915C
S1130C30A0049091A104FC01E45EFE4F2081318167
S1130C402150310949E2429FF001439FF00D1124E4
S1130C50EE5FFD4F24A135A1232B09F03DC0FC011B
S1130C60E45EFE4F2081318121503109429FF00121
S1130C70439FF00D1124EE5FFD4F22813381232B1E
S1130C8041F5DC01A45EBE4F2D913C91119721509A
S1130C903109429FF001439FF00D1124EE5FFD4F97
S1130CA093838283FC01EC5FFE4F23E020832D912C
S1130CB03C91215031097C9680819181429FF001C1
S1130CC0439FF00D1124EE5FFD4F90A787A3A7DC8F
S1130CD00DC186E090E07ADCFC01E45EFE4F2081E9
S1130CE031812150310949E2429FF001439FF00DC7
S1130CF01124EE5FFD4F22813381232B19F086E00E
S1130D0090E064DCFC01E45EFE4F808191810197F8
S1130D1029E2289FF001299FF00D1124EE5FFD4F79
S1130D20C4A1D5A121970AF4CEC019E201E0209113
S1130D30A0043091A104C901845E9E4FDC014D9151
S1130D405C9141505109FE013296EE0FFF1F149F32
S1130D50D001159FB00D1124AE0FBF1FAE5FBD4F64
S1130D600D90BC91A02DAC5FBE4F0C93DC014D9156
S1130D705C9141505109149FD001159FB00D11246D
S1130D80AE0FBF1FAE5FBD4F6D917C91A901405E58
S1130D905E4FDA014D915C91DB01A05EBE4F4D9335
S1130DA05C93DC014D915C91119741505109149F62
S1130DB0C001159F900D1124E80FF91FEE5FFD4F40
S1130DC00190F081E02DEB5FFE4F808191810397CC
S1130DD0C1F4FD0140815181CE010296880F991F13
S1130DE041505109149F9001159F300D1124820F19
S1130DF0931F46E954E062EC76E18E5F9D4FB8D3D1
S1130E0036C0F901E45EFE4F4081518141505109E1
S1130E10FE013296EE0FFF1F149FC001159F900D27
S1130E201124E80FF91FEE5FFD4F0190F081E02DD2
S1130E30EB5FFE4F808191810197C9F4F901E45E73
S1130E40FE4F40815181CE010296880F991F415077
S1130E505109149F9001159F300D1124820F931F87
S1130E6042E954E068E077E18E5F9D4F81D3A09121
S1130E70A004B091A104A45EBE4F2D913C911197A2
S1130E8021503109FE013296EE0FFF1F129FC0015F
S1130E90139F900D1124E80FF91FEE5FFD4F11828F
S1130EA010828D919C910197189FF001199FF00D6C
S1130EB01124EE5FFD4F84A195A1019795A384A30E
S1130EC021970AF034CFE091A004F091A104E45EEC
S1130ED0FE4F80819181019729E2289FF001299F8B
S1130EE0F00D1124EE5FFD4F10A617A2DF91CF91F4
S1130EF01F910F9108958091A0049091A104FC0189
S1130F00E25EFE4F208131812150310949E2429F46
S1130F10F001439FF00D1124EE5FFD4F22813381D8
S1130F20232B09F5FC01EC5FFE4F23E020837A9626
S1130F30208131818081918121503109E9E2E29F50
S1130F40A001E39F500D11244A5D5D4F0197E89F76
S1130F50B001E99F700D11246A5F7D4F80EA94E02F
S1130F6007D35DCB0895FC01E25EFE4F2081318101
S1130F702150310949E2429FD001439FB00D112411
S1130F80AE5FBD4F12960D90BC91A02DAC5FBE4FCD
S1130F9021E02C932081318121503109429FD001DD
S1130FA0439FB00D1124AE5FBD4F97962D913C9198
S1130FB09897DC01A05EBE4F11963C932E9320813E
S1130FC0318121503109429FF001439FF00D1124DA
S1130FD0EE5FFD4F0280F381E02DEB5FFE4F208139
S1130FE0318123303105A1F4FC01E25EFE4F208102
S1130FF0318121503109429FC001439F900D11243A
S113100046E954E062EC76E18C5F9D4FB1D22CC08E
S1131010FC01E25EFE4F208131812150310949E219
S1131020429FF001439FF00D1124EE5FFD4F0280BB
S1131030F381E02DEB5FFE4F2081318121303105BA
S113104099F4FC01E25EFE4F208131812150310987
S1131050429FC001439F900D112442E954E068E08F
S113106077E18C5F9D4F84D28091A0049091A1047C
S1131070FC01E25EFE4F208131812150310949E2B9
S1131080429FF001439FF00D1124EE5FFD4F138248
S11310901282FC01E45EFE4F808191810197489F9A
S11310A0F001499FF00D1124EE5FFD4F10A617A229
S11310B008950F931F93CF93DF938091A004909191
S11310C0A104FC01E45EFE4F2081318121503109ED
S11310D049E2429FF001439FF00D1124EE5FFD4F62
S11310E024A135A1232B31F5FC01E45EFE4F2081C0
S11310F0318121503109429FF001439FF00D1124A9
S1131100EE5FFD4F22813381232B89F4FC01E45EE1
S1131110FE4F2081318121503109429FF001439FCC
S1131120F00D1124EE5FFD4F938382830DC186E0A1
S113113090E04CDAFC01E45EFE4F208131812150C5
S1131140310949E2429FF001439FF00D1124EE5F03
S1131150FD4F22813381232B19F086E090E036DAAB
S1131160FC01E45EFE4F80819181019729E2289F72
S1131170F001299FF00D1124EE5FFD4FC4A1D5A10C
S113118021970AF4CEC019E201E02091A004309125
S1131190A104C901845E9E4FDC014D915C914150D4
S11311A05109FE013296EE0FFF1F149FD001159FC7
S11311B0B00D1124AE0FBF1FAE5FBD4F0D90BC919B
S11311C0A02DAC5FBE4F0C93DC014D915C9141505E
S11311D05109149FD001159FB00D1124AE0FBF1FEC
S11311E0AE5FBD4F6D917C91A901405E5E4FDA0107
S11311F04D915C91DB01A05EBE4F4D935C93DC018D
S11312004D915C91119741505109149FC001159F54
S1131210900D1124E80FF91FEE5FFD4F0190F0814E
S1131220E02DEB5FFE4F808191810397C1F4FD01B6
S113123040815181CE010296880F991F4150510976
S1131240149F9001159F300D1124820F931F46E9BE
S113125054E062EC76E18E5F9D4F8AD136C0F9018D
S1131260E45EFE4F4081518141505109FE013296A6
S1131270EE0FFF1F149FC001159F900D1124E80F5E
S1131280F91FEE5FFD4F0190F081E02DEB5FFE4F03
S1131290808191810197C9F4F901E45EFE4F408198
S11312A05181CE010296880F991F41505109149F14
S11312B09001159F300D1124820F931F42E954E0D1
S11312C068E077E18E5F9D4F53D1A091A004B09167
S11312D0A104A45EBE4F2D913C9111972150310978
S11312E0FE013296EE0FFF1F129FC001139F900D57
S11312F01124E80FF91FEE5FFD4F118210828D91CA
S11313009C910197189FF001199FF00D1124EE5F35
S1131310FD4F84A195A1019795A384A321970AF079
S113132034CFE091A004F091A104E45EFE4F8081EB
S11313309181019729E2289FF001299FF00D112442
S1131340EE5FFD4F10A617A2DF91CF911F910F9171
S11313500895DF92EF92FF920F931F93CF93DF9341
S113136080919E0490919F04892B09F0E2C08091A2
S11313709C0490919D04892B09F4DBC0F89481E0CE
S113138090E090939F0480939E0449D9DD24D394E4
S1131390E091A004F091A104DF01A55FBE4F1C926F
S11313A0828193819093E5168093E4160E949E00B7
S11313B0C091A004D091A1048091E4169091E51607
S11313C09B838A83FE01E55FFE4FE0818E2F90E0D0
S11313D0FC013197EA30F105D8F68827EE58FF4F23
S11313E08F4F8FC1FE01E95FFE4F408151813297DB
S11313F060817181349680819181EE24EA94FE2C7F
S11314000FEF1FEF2FEF3FEF61D8C45FDE4F9983DB
S11314108883BECFFE01E95FFE4F40815181329641
S113142080819181EE24EA94FE2C0FEF1FEF2FEFC1
S11314303FEF63E070E04AD8C45FDE4F998388834E
S1131440A7CFFE01E05FFE4FE080F180329600817D
S113145011813296208131813D97408151813296AC
S11314608081918162E070E031D8C45FDE4F99835E
S113147088838ECFFE01E95FFE4F40815181329611
S113148080819181EE24EA94FE2C0FEF1FEF2FEF61
S11314903FEF61E070E01AD8C45FDE4F9983888320
S11314A077CFFE01EC5FFE4FD0823196808191812F
S11314B0039741F446E954E062EC76E180EA94E073
S11314C057D01CC0FE01EB5FFE4F808191810297D3
S11314D041F444E954E066EE76E180EA94E09AD07F
S11314E00DC0CB5FDE4F88819981019739F442E9C1
S11314F054E068E077E180EA94E03AD090D848CFAD
S11315006BD846CF90DB44CFD4DD42CFF4DC40CF60
S1131510FE01EC5FFE4F10821982188280919C04B8
S113152090919D04019790939D0480939C0477D897
S11315302FCFDF91CF911F910F91FF90EF90DF900C
S113154008950B9A13980C9A14980D9A15980E9A5C
S113155016980F9A17983F9A479849DA0E94A90259
S113156098D96AE270E08AE691E054D9F2CE0895FF
S1131570CF93DF93EA01288139812F303105E9F0D7
S1131580E881F9819F012150310962F0EE0FFF1FBC
S1131590E60FF71FDB013291229133832283EA178E
S11315A0FB07C9F7FC0180819181FB019183808352
S11315B088819981019699838883DF91CF910895D9
S11315C0AC01DB018D919C911197892B01F1ED9177
S11315D0FC911197E150F048EE0FFF1FE40FF51F47
S11315E0808191812D913C911197F901E150F0484E
S11315F0EE0FFF1FE40FF51F118210822D913C9115
S113160011972150310911963C932E93089580E04F
S113161090E00895CF92DF92EF92FF920F931F9381
S1131620CF93DF936A01EA01288139812F30310594
S113163009F44AC02881398121503109FC01008113
S11316401181F901EE0FFF1FDB01AE0FBF1F4D919A
S11316505C9133233CF1D801AA5EBE4FED90FC901F
S1131660DA01AA5EBE4F4D915C91E416F506D4F002
S1131670E60FF71F0A5E1E4FA081B181B383A283D8
S113168021503109B291A2912F3F4FEF340751F00D
S1131690E801E880F980AA5EBE4F4D915C91E416A2
S11316A0F50654F7FC01808191812F5F3F4F220F93
S11316B0331FFB01E20FF31F91838083E6018881CE
S11316C09981019699838883DF91CF911F910F911E
S11316D0FF90EF90DF90CF900895FB01208131813E
S11316E0232B61F020813181F901E150F048EE0FA4
S11316F0FF1FE80FF91F80819181089580E090E039
S11317000895EE0FFF1F881F8BBF0790F691E02D01
S10917101994F894FFCFC8
S9030000FC
