S012000050726F6A656374325F322E7372656378
S11300007AC0000099C0000097C0000095C00000AD
S113001093C0000091C000008FC000008DC000009C
S11300208BC0000089C0000087C0000085C00000AC
S113003083C0000081C000007FC000007DC00000BC
S11300407BC0000027C4000077C0000075C000001A
S113005073C0000071C000006FC000006DC00000DC
S11300606BC0000069C0000067C0000065C00000EC
S113007063C0000061C000005FC000005DC00000FC
S11300805BC4000059C0000057C0000055C0000008
S113009053C0000051C000004FC000004DC000001C
S11300A04BC0000049C0000047C0000045C000002C
S11300B043C0000041C000003FC000003DC000003C
S11300C03BC0000039C0000037C0000035C000004C
S11300D033C0000031C000002FC000002DC000005C
S11300E02BC00000E508FD082D09140944097A090C
S11300F074097609780911241FBECFEFD1E2DEBF5F
S1130100CDBF00E00CBF12E0A0E0B2E0E6EFF4E106
S113011000E00BBF02C007900D92A030B107D9F7E1
S113012027E1A0E0B2E001C01D92A632B207E1F7D8
S11301300E9494090C94790A63CF0F921F922F9214
S11301403F924F925F926F927F928F929F92AF9263
S1130150BF92CF92DF92EF92FF920F931F932F9350
S11301603F934F935F936F937F938F939F93AF933B
S1130170BF93CF93DF93EF93FF930FB70F93FCB726
S1130180FF93EDB7FEB7E0930417F0930517E091E2
S1130190E216F091E316EDBFFEBFFF91FCBF0F9195
S11301A00FBFFF91EF91DF91CF91BF91AF919F91DD
S11301B08F917F916F915F914F913F912F911F91FB
S11301C00F91FF90EF90DF90CF90BF90AF909F90F2
S11301D08F907F906F905F904F903F902F901F90E3
S11301E00F9018950F921F922F923F924F925F9209
S11301F06F927F928F929F92AF92BF92CF92DF9233
S1130200EF92FF920F931F932F933F934F935F931C
S11302106F937F938F939F93AF93BF93CF93DF930A
S1130220EF93FF930FB70F93FCB7FF93EDB7FEB7B0
S1130230E093E216F093E316E0910417F0910517AA
S1130240EDBFFEBFFF91FCBF0F910FBFFF91EF9178
S1130250DF91CF91BF91AF919F918F917F916F91DA
S11302605F914F913F912F911F910F91FF90EF90CC
S1130270DF90CF90BF90AF909F908F907F906F90C2
S11302805F904F903F902F901F900F9008956BD3E5
S113029065E470E081E090E0E9D5169A1698FDCF08
S11302A060E070E087E491E020D256C00895FFCF6B
S11302B066E974E082EC96E10E94D0099093A1046F
S11302C08093A0048091940490919504892BE9F083
S11302D064E974E084EE96E10E945D0AFC01EA5E42
S11302E0FE4F80819181892B81F48091A0049091AB
S11302F0A104892B11F564E974E084EE96E10E946F
S1130300D0099093A1048093A0048091A0049091BB
S1130310A104892B91F462E974E086E097E10E94DC
S1130320D0099093A1048093A004892B31F482EA2C
S113033094E09093A1048093A004E091A004F09130
S1130340A104828193819093E3168093E216EC5F7B
S1130350FE4F82E08083089580919E0490919F04D3
S1130360892B51F0F894E091A004F091A104E55F89
S1130370FE4F86E0808336CF08958F929F92AF928E
S1130380BF92CF92DF92EF92FF920F931F93CF937E
S1130390DF931F921F92CDB7DEB79A8389835C01E6
S11303A0A4E0AA0EB11C812C99249394F501D401E4
S11303B011921197E9F7DC01AD5FBE4FECEAF1E071
S11303C0EC931197FC93FC01EF5FFE4F6083319730
S11303D0708331971082B397DC011396FC93EE93EC
S11303E01297BD96718360833296108260919A044D
S11303F070919B04FC017183608389819A81FC0163
S1130400EB5FFE4F518340833296318320833F96C6
S11304102FEF3FEF3183208332961182108234977D
S1130420118300833497D182C0823296F182E082B4
S113043020919C0430919D042F5F3F4F30939D0485
S113044020939C0420919A0430919B042F5F3F4F8A
S113045030939B0420939A043E9721E020834330F9
S1130460510541F446E954E062EC76E1CE0101968F
S11304706FD71AC04230510569F4FC01EA5EFE4FA1
S11304801183008344E954E064EE76E1CE010196E1
S1130490B1D70AC04130510539F442E954E066E06D
S11304A077E1CE01019654D7E981FA818081918167
S11304B00F900F90DF91CF911F910F91FF90EF90CC
S11304C0DF90CF90BF90AF909F908F900895CF9280
S11304D0DF92EF92FF920F931F93CF93DF93E90183
S11304E020919C0430919D042031310541F12091EB
S11304F0A605222371F0A8ECB6E0E1E0F0E03C911F
S1130500332349F03196AE5DBE4FE031F105B9F7C2
S113051002C0E0E0F0E0670178018E019A01AB01CE
S1130520BC0182E291E0E89FD001E99FB00DF89F01
S1130530B00D1124CD018E559B4F1FDF02C080E00A
S113054090E0DF91CF911F910F91FF90EF90DF909A
S1130550CF90089510929D0410929C0410929F04D1
S113056010929E0410929B0410929A04E2EAF4E022
S113057022EC36E182E291E0DF01AC011D924150B0
S11305805040E1F7DF01AC5FBE4F1C921182108234
S1130590EE5DFE4FE217F30779F7A2E0B2E080E0E8
S11305A090E029E2FD01322F11923A95E9F7289F54
S11305B0F001299FF00D1124EE5FFD4F16A2019664
S11305C09183808399968031910561F7089581E044
S11305D090E08FD7EF92FF920F931F93CF93E09108
S11305E09E04F0919F04EF2B09F45DC0F8946330EE
S11305F0710549F4E091A004F091A104E55FFE4F78
S1130600A2E0A08328C06230710589F4E091A004BF
S1130610F091A104DF01A55FBE4FC4E0CC93EA5E74
S1130620FE4FD901AE0DBF1DB183A08314C061304C
S1130630710549F4E091A004F091A104E55FFE4F37
S1130640A3E0A08308C0E091A004F091A104E55FB9
S1130650FE4FA1E0A083E091A004F091A104DF018A
S1130660A75FBE4F11969C938E93149711967C931B
S11306706E93129611965C934E931D9611963C932D
S11306802E93129711961C930E93E05FFE4FF18206
S1130690E082A8DDE091A004F091A104E45FFE4FA4
S11306A08081918108C0EE24EA94FE2C0FEF1FEFA5
S11306B02FEF3FEF0CDFCF911F910F91FF90EF9041
S11306C00895EF92FF920F931F93AB01EE24EA94E7
S11306D0FE2C0FEF1FEF2FEF3FEF63E070E07ADFA8
S11306E01F910F91FF90EF900895EF92FF920F9357
S11306F01F93AB01EE24EA94FE2C0FEF1FEF2FEFB4
S11307003FEF61E070E066DF1F910F91FF90EF9083
S11307100895EF92FF920F931F9380919E049091FE
S11307209F04892BF1F0F8948091A0049091A10486
S1130730FC01E75FFE4F27E531E0318320833497E6
S113074024E030E0318320833296118210824ADD26
S1130750E091A004F091A104E45FFE4F80819181B7
S11307600EC0EE24EA94FE2C0FEF1FEF2FEF3FEFA5
S113077040E050E064E070E087E591E0A8DE1F917E
S11307800F91FF90EF90089580919E0490919F04A3
S1130790892B09F449C0F8948091A0049091A10494
S11307A0FC01EB5FFE4F208131812330310519F4C8
S11307B03696108238C0FC01EB5FFE4F20813181F8
S11307C02230310559F57396408151813697208145
S11307D031814217530739F02091960430919704E0
S11307E012161306B4F4FC01E05FFE4F2081318140
S11307F0389640815181241B350BDC01AA5EBE4F23
S113080011963C932E93118210823D9785E080834C
S11308100AC0FC01E55FFE4F108205C0FC01E55FE4
S1130820FE4F85E08083DECC0895F894109280001A
S1130830E1E8F0E01082109285001092840080E7D5
S113084092E09093890080938800808188608083FF
S1130850808184608083EFE6F0E080818260808321
S113086010929000E1E9F0E010821092950010924D
S1130870940083E294EF9093990080939800808190
S11308808860808380818460808382E080937100AB
S1130890789408951F920F920FB60F9211240BB6FD
S11308A00F922F933F934F935F936F937F938F9305
S11308B09F93AF93BF93EF93FF938091A004909184
S11308C0A104FC01EB5FFE4F208131812230310510
S11308D031F4739680819181019691838083A091F4
S11308E09404B0919504CD01019792F0AA0FBB1F17
S11308F0AC51B94E24EE36E1FE91EE91EA5EFE4F24
S113090080819181019791838083A217B307A1F716
S11309103BDFFF91EF91BF91AF919F918F917F91B9
S11309206F915F914F913F912F910F900BBE0F905C
S11309300FBE0F901F9018951F920F920FB60F9233
S113094011248F939F938091980490919904019618
S113095090939904809398049F918F910F900FBE68
S11309600F901F901895809100029091010240977A
S1130970B1F180912802882371F081E090E039E29E
S1130980389FF001399FF00D1124EE5FFD4F26A131
S1130990211113C002C080E090E029E2289FF001F9
S11309A0299FF00D1124EE5FFD4F22E026A315A22E
S11309B014A28031910541F415C00196803191054E
S11309C0F9F680E090E0089529E2289FF001299F3C
S11309D0F00D1124EE5FFD4F80819181089580E038
S11309E090E0089580E090E008950F931F93CF93D3
S11309F0DF938091A0049091A104FC01E45EFE4F7A
S1130A00208131812150310949E2429FF001439F05
S1130A10F00D1124EE5FFD4F24A135A1232BD9F550
S1130A20FC01E45EFE4F2081318121503109429F57
S1130A30F001439FF00D1124EE5FFD4F22813381BD
S1130A40232B41F5DC01A45EBE4F2D913C911197FF
S1130A5021503109429FF001439FF00D1124EE5FB4
S1130A60FD4F93838283FC01EC5FFE4F23E02083E0
S1130A702D913C91215031097C9680819181429F36
S1130A80F001439FF00D1124EE5FFD4F90A787A363
S1130A900FDC09C19CDDFC01E45EFE4F2081318145
S1130AA02150310949E2429FF001439FF00D112486
S1130AB0EE5FFD4F22813381232B09F088DDFC0199
S1130AC0E45EFE4F80819181019729E2289FF00125
S1130AD0299FF00D1124EE5FFD4FC4A1D5A12197EC
S1130AE00AF4CEC019E201E02091A0043091A104DF
S1130AF0C901845E9E4FDC014D915C9141505109C6
S1130B00FE013296EE0FFF1F149FD001159FB00D0A
S1130B101124AE0FBF1FAE5FBD4F0D90BC91A02D31
S1130B20AC5FBE4F0C93DC014D915C914150510977
S1130B30149FD001159FB00D1124AE0FBF1FAE5FDF
S1130B40BD4F6D917C91A901405E5E4FDA014D91DC
S1130B505C91DB01A05EBE4F4D935C93DC014D9133
S1130B605C91119741505109149FC001159F900D3C
S1130B701124E80FF91FEE5FFD4F0190F081E02D85
S1130B80EB5FFE4F808191810397C1F4FD014081A9
S1130B905181CE010296880F991F41505109149F2B
S1130BA09001159F300D1124820F931F46E954E0E4
S1130BB062EC76E18E5F9D4FCBD336C0F901E45EE3
S1130BC0FE4F4081518141505109FE013296EE0F92
S1130BD0FF1F149FC001159F900D1124E80FF91FEA
S1130BE0EE5FFD4F0190F081E02DEB5FFE4F8081C1
S1130BF091810197C9F4F901E45EFE4F408151816E
S1130C00CE010296880F991F41505109149F9001FB
S1130C10159F300D1124820F931F42E954E066E0C2
S1130C2077E18E5F9D4F94D3A091A004B091A1046D
S1130C30A45EBE4F2D913C91119721503109FE01C4
S1130C403296EE0FFF1F129FC001139F900D1124C7
S1130C50E80FF91FEE5FFD4F118210828D919C9178
S1130C600197189FF001199FF00D1124EE5FFD4FBD
S1130C7084A195A1019795A384A321970AF034CF69
S1130C80E091A004F091A104E45EFE4F8081918183
S1130C90019729E2289FF001299FF00D1124EE5FAE
S1130CA0FD4F10A617A2DF91CF911F910F910895C8
S1130CB08091A0049091A104FC01E25EFE4F20818A
S1130CC031812150310949E2429FF001439FF00DE7
S1130CD01124EE5FFD4F22813381232B09F5FC01A2
S1130CE0EC5FFE4F23E020837A962081318180815E
S1130CF0918121503109E9E2E29FA001E39F500D67
S1130D0011244A5D5D4F0197E89FB001E99F700D82
S1130D1011246A5F7D4F80EA94E01AD3C9CA08950A
S1130D20FC01E25EFE4F208131812150310949E20C
S1130D30429FD001439FB00D1124AE5FBD4F129668
S1130D400D90BC91A02DAC5FBE4F21E02C9320816F
S1130D50318121503109429FD001439FB00D1124AC
S1130D60AE5FBD4F97962D913C919897DC01A05EA4
S1130D70BE4F11963C932E9320813181215031092D
S1130D80429FF001439FF00D1124EE5FFD4F02805E
S1130D90F381E02DEB5FFE4F20813181233031055B
S1130DA0A1F4FC01E25EFE4F208131812150310922
S1130DB0429FC001439F900D112446E954E062EC28
S1130DC076E18C5F9D4FC4D22CC0FC01E25EFE4FE5
S1130DD0208131812150310949E2429FF001439F32
S1130DE0F00D1124EE5FFD4F0280F381E02DEB5FE7
S1130DF0FE4F208131812130310599F4FC01E25EFE
S1130E00FE4F2081318121503109429FC001439F0F
S1130E10900D112442E954E066E077E18C5F9D4F28
S1130E2097D28091A0049091A104FC01E25EFE4F50
S1130E30208131812150310949E2429FF001439FD1
S1130E40F00D1124EE5FFD4F13821282FC01E45E6B
S1130E50FE4F808191810197489FF001499FF00DD9
S1130E601124EE5FFD4F10A617A208952091A0044F
S1130E703091A104F901EB5FFE4F40815181423072
S1130E80510509F4A4DBF901E55FFE4F48E0408316
S1130E90719691838083349671836083A3C9089586
S1130EA00F931F93CF93DF938091A0049091A1049B
S1130EB0FC01E45EFE4F208131812150310949E279
S1130EC0429FF001439FF00D1124EE5FFD4F24A1DA
S1130ED035A1232B21F5FC01E45EFE4F20813181F5
S1130EE021503109429FF001439FF00D1124EE5F20
S1130EF0FD4F22813381232B89F4FC01E45EFE4FF4
S1130F002081318121503109429FF001439FF00D2E
S1130F101124EE5FFD4F9383828309C158DBFC01EA
S1130F20E45EFE4F208131812150310949E2429F24
S1130F30F001439FF00D1124EE5FFD4F22813381B8
S1130F40232B09F044DBFC01E45EFE4F8081918198
S1130F50019729E2289FF001299FF00D1124EE5FEB
S1130F60FD4FC4A1D5A121970AF4CEC019E201E036
S1130F702091A0043091A104C901845E9E4FDC013C
S1130F804D915C9141505109FE013296EE0FFF1FC5
S1130F90149FD001159FB00D1124AE0FBF1FAE5F7B
S1130FA0BD4F0D90BC91A02DAC5FBE4F0C93DC01E6
S1130FB04D915C9141505109149FD001159FB00D82
S1130FC01124AE0FBF1FAE5FBD4F6D917C91A9017F
S1130FD0405E5E4FDA014D915C91DB01A05EBE4F35
S1130FE04D935C93DC014D915C91119741505109F3
S1130FF0149FC001159F900D1124E80FF91FEE5F97
S1131000FD4F0190F081E02DEB5FFE4F80819181D7
S11310100397C1F4FD0140815181CE010296880FEE
S1131020991F41505109149F9001159F300D1124AF
S1131030820F931F46E954E062EC76E18E5F9D4F88
S113104087D136C0F901E45EFE4F408151814150A1
S11310505109FE013296EE0FFF1F149FC001159F28
S1131060900D1124E80FF91FEE5FFD4F0190F08100
S1131070E02DEB5FFE4F808191810197C9F4F90166
S1131080E45EFE4F40815181CE010296880F991F84
S113109041505109149F9001159F300D1124820F66
S11310A0931F42E954E066E077E18E5F9D4F50D193
S11310B0A091A004B091A104A45EBE4F2D913C91D7
S11310C0119721503109FE013296EE0FFF1F129F36
S11310D0C001139F900D1124E80FF91FEE5FFD4F1F
S11310E0118210828D919C910197189FF001199F94
S11310F0F00D1124EE5FFD4F84A195A1019795A3F6
S113110084A321970AF034CFE091A004F091A104C4
S1131110E45EFE4F80819181019729E2289FF001CE
S1131120299FF00D1124EE5FFD4F10A617A2DF9149
S1131130CF911F910F910895DF92EF92FF920F9339
S11311401F93CF93DF9380919E0490919F04892BEA
S113115009F0E2C080919C0490919D04892B09F4CC
S1131160DBC0F89481E090E090939F0480939E0408
S11311709FD8DD24D394E091A004F091A104DF0171
S1131180A55FBE4F1C92828193819093E316809356
S1131190E2160E949D00C091A004D091A104809108
S11311A0E2169091E3169B838A83FE01E55FFE4F6E
S11311B0E0818E2F90E0FC013197E930F105D8F6FB
S11311C08827EE58FF4F8F4F8CC1FE01E95FFE4F19
S11311D040815181329760817181349680819181FF
S11311E0EE24EA94FE2C0FEF1FEF2FEF3FEF6FD9A1
S11311F0C45FDE4F99838883BECFFE01E95FFE4F53
S113120040815181329680819181EE24EA94FE2CB2
S11312100FEF1FEF2FEF3FEF63E070E058D9C45F8B
S1131220DE4F99838883A7CFFE01E05FFE4FE08005
S1131230F1803296008111813296208131813D976F
S11312404081518132968081918162E070E03FD982
S1131250C45FDE4F998388838ECFFE01E95FFE4F22
S113126040815181329680819181EE24EA94FE2C52
S11312700FEF1FEF2FEF3FEF61E070E028D9C45F5D
S1131280DE4F9983888377CFFE01EC5FFE4FD082D7
S1131290319680819181039741F446E954E062ECF0
S11312A076E180EA94E054D01CC0FE01EB5FFE4F6F
S11312B080819181029741F444E954E064EE76E13F
S11312C080EA94E097D00DC0CB5FDE4F888199818E
S11312D0019739F442E954E066E077E180EA94E06A
S11312E037D00E94580147CF80DB45CFD9DD43CFAB
S11312F0DFDC41CFFE01EC5FFE4F108219821882C1
S113130080919C0490919D04019790939D048093F7
S11313109C040E9458012FCFDF91CF911F910F9110
S1131320FF90EF90DF9008950B9A13980C9A1498FD
S11313300D9A15980E9A16980F9A179876DA0AD974
S1131340E8D961E070E080E591E0BBD9F5CE08957D
S1131350CF93DF93EA01288139812F303105E9F0F9
S1131360E881F9819F012150310962F0EE0FFF1FDE
S1131370E60FF71FDB013291229133832283EA17B0
S1131380FB07C9F7FC0180819181FB019183808374
S113139088819981019699838883DF91CF910895FB
S11313A0AC01DB018D919C911197892B01F1ED9199
S11313B0FC911197E150F048EE0FFF1FE40FF51F69
S11313C0808191812D913C911197F901E150F04870
S11313D0EE0FFF1FE40FF51F118210822D913C9137
S11313E011972150310911963C932E93089580E072
S11313F090E00895CF92DF92EF92FF920F931F93A4
S1131400CF93DF936A01EA01288139812F303105B6
S113141009F44AC02881398121503109FC01008135
S11314201181F901EE0FFF1FDB01AE0FBF1F4D91BC
S11314305C9133233CF1D801AA5EBE4FED90FC9041
S1131440DA01AA5EBE4F4D915C91E416F506D4F024
S1131450E60FF71F0A5E1E4FA081B181B383A283FA
S113146021503109B291A2912F3F4FEF340751F02F
S1131470E801E880F980AA5EBE4F4D915C91E416C4
S1131480F50654F7FC01808191812F5F3F4F220FB5
S1131490331FFB01E20FF31F91838083E6018881F0
S11314A09981019699838883DF91CF911F910F9140
S11314B0FF90EF90DF90CF900895FB012081318160
S11314C0232B61F020813181F901E150F048EE0FC6
S11314D0FF1FE80FF91F80819181089580E090E05B
S11314E00895EE0FFF1F881F8BBF0790F691E02D24
S10914F01994F894FFCFEB
S9030000FC
