S012000050726F6A656374325F322E7372656378
S113000079C000008AC0000088C0000086C00000DB
S113001084C0000082C0000080C000007EC00000D8
S11300207CC000007AC0000078C0000076C00000E8
S113003074C0000072C0000070C000006EC00000F8
S11300406CC0000036C4000068C0000066C0000038
S113005064C0000062C0000060C000005EC0000018
S11300605CC000005AC0000058C0000056C0000028
S113007054C0000052C0000050C000004EC0000038
S11300806AC400004AC0000048C0000046C0000026
S113009044C0000042C0000040C000003EC0000058
S11300A03CC000003AC0000038C0000036C0000068
S11300B034C0000032C0000030C000002EC0000078
S11300C02CC000002AC0000028C0000026C0000088
S11300D024C0000022C0000020C000001EC0000098
S11300E01CC000004B07630793077A07AA07DD07C4
S11300F0D907DB0711241FBECFEFD1E2DEBFCDBF8E
S113010000E00CBF27E1A0E0B2E001C01D92A432E0
S1130110B207E1F76BD70C94DB0872CF0F921F92F2
S11301202F923F924F925F926F927F928F929F9203
S1130130AF92BF92CF92DF92EF92FF920F931F93F1
S11301402F933F934F935F936F937F938F939F93DB
S1130150AF93BF93CF93DF93EF93FF930FB70F93B7
S1130160FCB7FF93EDB7FEB7E0930217F0930317C4
S1130170E091E016F091E116EDBFFEBFFF91FCBFE8
S11301800F910FBFFF91EF91DF91CF91BF91AF918D
S11301909F918F917F916F915F914F913F912F919B
S11301A01F910F91FF90EF90DF90CF90BF90AF9091
S11301B09F908F907F906F905F904F903F902F9083
S11301C01F900F9018950F921F922F923F924F926B
S11301D05F926F927F928F929F92AF92BF92CF92D3
S11301E0DF92EF92FF920F931F932F933F934F93BE
S11301F05F936F937F938F939F93AF93BF93CF93AB
S1130200DF93EF93FF930FB70F93FCB7FF93EDB713
S1130210FEB7E093E016F093E116E0910217F09137
S11302200317EDBFFEBFFF91FCBF0F910FBFFF91FE
S1130230EF91DF91CF91BF91AF919F918F917F917A
S11302406F915F914F913F912F911F910F91FF906B
S1130250EF90DF90CF90BF90AF909F908F907F9062
S11302606F905F904F903F902F901F900F90089544
S1130270139A1398FDCF149A1498FDCF159A1598D4
S1130280FDCF179A1798FDCFEF92FF920F931F930C
S11302900F2EFAE0EF2EF12CF02D02E010E020E01A
S11302A030E040E050E062E070E088E391E0B5D1F6
S11302B001E010E024E030E040E050E062E070E073
S11302C08BE391E0AAD128E030E040E050E062E026
S11302D070E08EE391E0A1D1EE24EA94FE2C0FEFBE
S11302E01FEF2FEF3FEF40E050E061E070E081E46A
S11302F091E093D156D01F910F91FF90EF90089504
S1130300FFCF64E974E080EC96E1ACD690939F044F
S113031080939E048091920490919304892BD9F048
S113032062E974E082EE96E12AD7FC01EA5EFE4FB0
S113033080819181892B79F480919E0490919F040E
S1130340892B01F562E974E082EE96E18BD69093F5
S11303509F0480939E0480919E0490919F04892B16
S113036089F460E974E084E097E17CD690939F047B
S113037080939E04892B31F480EA94E090939F0447
S113038080939E04E0919E04F0919F048281938166
S11303909093E1168093E016EC5FFE4F82E0808339
S11303A0089580919C0490919D04892B51F0F894B8
S11303B0E0919E04F0919F04E55FFE4F86E0808308
S11303C002CF08958F929F92AF92BF92CF92DF9205
S11303D0EF92FF920F931F93CF93DF931F921F927D
S11303E0CDB7DEB79A8389835C01A4E0AA0EB11C61
S11303F0812C99249394F501D40111921197E9F772
S1130400DC01AD5FBE4FE1EDF1E0EC931197FC939D
S1130410FC01EF5FFE4F6083319770833197108248
S1130420B397DC011396FC93EE931297BD967183F8
S11304306083329610826091980470919904FC0153
S11304407183608389819A81FC01EB5FFE4F518344
S113045040833296318320833F962FEF3FEF3183E1
S1130460208332961182108234971183008334974B
S1130470D182C0823296F182E08220919A04309136
S11304809B042F5F3F4F30939B0420939A04209149
S11304909804309199042F5F3F4F3093990420932F
S11304A098043E9721E020834330510541F444E908
S11304B054E060EC76E1CE010196ACD51AC042302E
S11304C0510569F4FC01EA5EFE4F1183008342E9A1
S11304D054E062EE76E1CE010196EED50AC04130D9
S11304E0510539F440E954E064E077E1CE01019626
S11304F091D5E981FA81808191810F900F90DF91EC
S1130500CF911F910F91FF90EF90DF90CF90BF900C
S1130510AF909F908F900895CF92DF92EF92FF92C9
S11305200F931F93CF93DF93E90120919A043091A5
S11305309B042031310541F12091A405222371F05F
S1130540A6ECB6E0E1E0F0E03C91332349F03196CB
S1130550AE5DBE4FE031F105B9F702C0E0E0F0E076
S1130560670178018E019A01AB01BC0182E291E03E
S1130570E89FD001E99FB00DF89FB00D1124CD0183
S113058080569B4F1FDF00C0DF91CF911F910F91C9
S1130590FF90EF90DF90CF90089510929B041092FB
S11305A09A0410929D0410929C0410929904109243
S11305B09804E0EAF4E020EC36E182E291E0DF0125
S11305C0AC011D9241505040E1F7DF01AC5FBE4FDA
S11305D01C9211821082EE5DFE4FE217F30779F749
S11305E0A0E0B2E080E090E029E2FD01322F119218
S11305F03A95E9F7289FF001299FF00D1124E05066
S1130600FE4F16A2019691838083999680319105BD
S113061061F7089581E090E0CED5EF92FF920F93B9
S11306201F93CF93E0919C04F0919D04EF2B09F468
S11306305DC0F8946330710549F4E0919E04F09133
S11306409F04E55FFE4FA2E0A08328C062307105DD
S113065089F4E0919E04F0919F04DF01A55FBE4FF1
S1130660C4E0CC93EA5EFE4FD901AE0DBF1DB18349
S1130670A08314C06130710549F4E0919E04F091A7
S11306809F04E55FFE4FA3E0A08308C0E0919E04B1
S1130690F0919F04E55FFE4FA1E0A083E0919E04EA
S11306A0F0919F04DF01A75FBE4F11969C938E9338
S11306B0149711967C936E93129611965C934E93B5
S11306C01D9611963C932E93129711961C930E939C
S11306D0E05FFE4FF182E08276DDE0919E04F091CE
S11306E09F04E45FFE4F8081918108C0EE24EA9468
S11306F0FE2C0FEF1FEF2FEF3FEF0EDFCF911F9177
S11307000F91FF90EF900895EF92FF920F931F9334
S1130710AB01EE24EA94FE2C0FEF1FEF2FEF3FEF17
S113072063E070E07ADF1F910F91FF90EF900895DE
S1130730EF92FF920F931F9380919C0490919D04DC
S1130740892BF1F0F89480919E0490919F04FC0110
S1130750E75FFE4F20E831E031832083349724E0C3
S113076030E0318320833296118210822CDDE091B7
S11307709E04F0919F04E45FFE4F808191810EC03E
S1130780EE24EA94FE2C0FEF1FEF2FEF3FEF40E033
S113079050E064E070E080E891E0BEDE1F910F91CC
S11307A0FF90EF90089580919C0490919D04892B73
S11307B009F449C0F89480919E0490919F04FC012F
S11307C0EB5FFE4F208131812330310519F43696D9
S11307D0108238C0FC01EB5FFE4F20813181223052
S11307E0310559F5739640815181369720813181C5
S11307F04217530739F0209194043091950412164E
S11308001306B4F4FC01E05FFE4F20813181389679
S113081040815181241B350BDC01AA5EBE4F119629
S11308203C932E93118210823D9785E080830AC009
S1130830FC01E55FFE4F108205C0FC01E55FFE4F41
S113084085E08083C0CC0895F89410928000E1E89C
S1130850F0E01082109285001092840080E792E00C
S11308609093890080938800808188608083808150
S113087084608083EFE6F0E0808182608083109260
S11308809000E1E9F0E0108210929500109294003B
S113089083E294EF9093990080939800808188601C
S11308A0808380818460808382E080937100789467
S11308B008951F920F920FB60F9211240BB60F9248
S11308C02F933F934F935F936F937F938F939F9354
S11308D0AF93BF93EF93FF9380919E0490919F04F5
S11308E0FC01EB5FFE4F208131812230310531F470
S11308F0739680819181019691838083A091920463
S1130900B0919304CD01019792F0AA0FBB1FAE5191
S1130910B94E22EE36E1FE91EE91EA5EFE4F808101
S11309209181019791838083A217B307A1F73BDFDD
S1130930FF91EF91BF91AF919F918F917F916F91B3
S11309405F914F913F912F910F900BBE0F900FBE6F
S11309500F901F9018951F920F920FB60F921124AB
S11309608F939F938091960490919704019690930E
S11309709704809396049F918F910F900FBE0F90D0
S11309801F9018950F931F93CF93DF9380919E042C
S113099090919F04FC01E45EFE4F2081318121503F
S11309A0310949E2429FF001439FF00D1124E050C8
S11309B0FE4F24A135A1232BD9F5FC01E45EFE4FA3
S11309C02081318121503109429FF001439FF00D74
S11309D01124E050FE4F22813381232B41F5DC01A9
S11309E0A45EBE4F2D913C91119721503109429F35
S11309F0F001439FF00D1124E050FE4F9383828356
S1130A00FC01EC5FFE4F23E020832D913C912150AB
S1130A1031097C9680819181429FF001439FF00DC2
S1130A201124E050FE4F90A787A36BDC09C1F2DDCF
S1130A30FC01E45EFE4F208131812150310949E2FD
S1130A40429FF001439FF00D1124E050FE4F22819C
S1130A503381232B09F0DEDDFC01E45EFE4F80814F
S1130A609181019729E2289FF001299FF00D11241B
S1130A70E050FE4FC4A1D5A121970AF4CEC019E2DB
S1130A8001E020919E0430919F04C901845E9E4F31
S1130A90DC014D915C9141505109FE013296EE0FFB
S1130AA0FF1F149FD001159FB00D1124AE0FBF1F5F
S1130AB0A050BE4F0D90BC91A02DAC5FBE4F0C93C7
S1130AC0DC014D915C9141505109149FD001159F57
S1130AD0B00D1124AE0FBF1FA050BE4F6D917C917D
S1130AE0A901405E5E4FDA014D915C91DB01A05E8D
S1130AF0BE4F4D935C93DC014D915C911197415035
S1130B005109149FC001159F900D1124E80FF91F7E
S1130B10E050FE4F0190F081E02DEB5FFE4F8081AD
S1130B2091810397C1F4FD0140815181CE01029668
S1130B30880F991F41505109149F9001159F300D42
S1130B401124820F931F44E954E060EC76E1805055
S1130B509E4F60D236C0F901E45EFE4F4081518160
S1130B6041505109FE013296EE0FFF1F149FC00140
S1130B70159F900D1124E80FF91FE050FE4F0190CE
S1130B80F081E02DEB5FFE4F808191810197C9F4E4
S1130B90F901E45EFE4F40815181CE010296880F37
S1130BA0991F41505109149F9001159F300D112434
S1130BB0820F931F40E954E064E077E180509E4F38
S1130BC029D2A0919E04B0919F04A45EBE4F2D91A2
S1130BD03C91119721503109FE013296EE0FFF1F0F
S1130BE0129FC001139F900D1124E80FF91FE050CC
S1130BF0FE4F118210828D919C910197189FF001F4
S1130C00199FF00D1124E050FE4F84A195A1019786
S1130C1095A384A321970AF034CFE0919E04F09128
S1130C209F04E45EFE4F80819181019729E2289F11
S1130C30F001299FF00D1124E050FE4F10A617A2D9
S1130C40DF91CF911F910F91089580919E0490910F
S1130C509F04FC01E25EFE4F208131812150310965
S1130C6049E2429FF001439FF00D1124E050FE4FF2
S1130C7022813381232B09F5FC01EC5FFE4F23E035
S1130C8020837A962081318180819181215031099C
S1130C90E9E2E29FA001E39F500D11244C5D5D4FFA
S1130CA00197E89FB001E99F700D11246C5F7D4F9F
S1130CB08EE994E0AFD125CB0895FC01E25EFE4FAE
S1130CC0208131812150310949E2429FD001439F63
S1130CD0B00D1124A050BE4F12960D90BC91A02DC2
S1130CE0AC5FBE4F21E02C9320813181215031092A
S1130CF0429FD001439FB00D1124A050BE4F979640
S1130D002D913C919897DC01A05EBE4F11963C93C7
S1130D102E932081318121503109429FF001439F5C
S1130D20F00D1124E050FE4F0280F381E02DEB5FC3
S1130D30FE4F2081318123303105A1F4FC01E25EB4
S1130D40FE4F2081318121503109429FC001439FD0
S1130D50900D112444E954E060EC76E18E5F9D4FE0
S1130D6059D12CC0FC01E25EFE4F2081318121501B
S1130D70310949E2429FF001439FF00D1124E050F4
S1130D80FE4F0280F381E02DEB5FFE4F2081318125
S1130D902130310599F4FC01E25EFE4F208131815E
S1130DA021503109429FC001439F900D112440E915
S1130DB054E064E077E18E5F9D4F2CD180919E04D6
S1130DC090919F04FC01E25EFE4F2081318121500D
S1130DD0310949E2429FF001439FF00D1124E05094
S1130DE0FE4F13821282FC01E45EFE4F80819181EA
S1130DF00197489FF001499FF00D1124E050FE4FE8
S1130E0010A617A20895DF92EF92FF920F931F93FB
S1130E10CF93DF9380919C0490919D04892B09F0DA
S1130E20DDC080919A0490919B04892B09F4D6C06B
S1130E30F89481E090E090939D0480939C0461DA9F
S1130E40DD24D394E0919E04F0919F04DF01A55F1B
S1130E50BE4F1C92828193819093E1168093E01699
S1130E605DD9C0919E04D0919F048091E016909129
S1130E70E1169B838A83FE01E55FFE4FE0818E2F9E
S1130E8090E0FC013197E830F105E0F68827EE5850
S1130E90FF4F8F4F88C1FE01E95FFE4F40815181B2
S1130EA0329760817181349680819181EE24EA9435
S1130EB0FE2C0FEF1FEF2FEF3FEF2EDBC45FDE4F53
S1130EC099838883BFCFFE01E95FFE4F4081518142
S1130ED0329680819181EE24EA94FE2C0FEF1FEF6D
S1130EE02FEF3FEF63E070E017DBC45FDE4F9983C1
S1130EF08883A8CFFE01E05FFE4FE080F180329648
S1130F00008111813296208131813D974081518148
S1130F1032968081918162E070E0FEDAC45FDE4F38
S1130F20998388838FCFFE01E95FFE4F4081518111
S1130F30329680819181EE24EA94FE2C0FEF1FEF0C
S1130F402FEF3FEF61E070E0E7DAC45FDE4F998393
S1130F50888378CFFE01EC5FFE4FD082319680818A
S1130F609181039741F444E954E060EC76E18EE921
S1130F7094E050D01CC0FE01EB5FFE4F8081918154
S1130F80029741F442E954E062EE76E18EE994E09E
S1130F9093D00DC0CB5FDE4F88819981019739F4DE
S1130FA040E954E064E077E18EE994E033D0A9D9D4
S1130FB049CFE8DC47CF49DE45CFFE01EC5FFE4F69
S1130FC010821982188280919A0490919B0401974F
S1130FD090939B0480939A0494D934CFDF91CF915A
S1130FE01F910F91FF90EF90DF9008950B9A139843
S1130FF00C9A14980D9A15980E9A16980F9A179899
S113100023DCCBDA95DB61E070E084E491E07CDB07
S1131010FACE0895CF93DF93EA01288139812F30E6
S11310203105E9F0E881F9819F012150310962F02D
S1131030EE0FFF1FE60FF71FDB013291229133837E
S11310402283EA17FB07C9F7FC0180819181FB0128
S11310509183808388819981019699838883DF9124
S1131060CF910895AC01DB018D919C911197892B4F
S113107001F1ED91FC911197E150F048EE0FFF1F43
S1131080E40FF51F808191812D913C911197F90115
S1131090E150F048EE0FFF1FE40FF51F118210829C
S11310A02D913C9111972150310911963C932E9327
S11310B0089580E090E00895CF92DF92EF92FF923E
S11310C00F931F93CF93DF936A01EA01288139813B
S11310D02F30310509F44AC0288139812150310962
S11310E0FC0100811181F901EE0FFF1FDB01AE0F3E
S11310F0BF1F4D915C9133233CF1D801AA5EBE4FD2
S1131100ED90FC90DA01AA5EBE4F4D915C91E4161D
S1131110F506D4F0E60FF71F0A5E1E4FA081B181D9
S1131120B383A28321503109B291A2912F3F4FEF93
S1131130340751F0E801E880F980AA5EBE4F4D9172
S11311405C91E416F50654F7FC01808191812F5FD0
S11311503F4F220F331FFB01E20FF31F9183808364
S1131160E60188819981019699838883DF91CF91E3
S11311701F910F91FF90EF90DF90CF900895FB01A6
S113118020813181232B61F020813181F901E150EB
S1131190F048EE0FFF1FE80FF91F80819181089539
S11311A080E090E00895EE0FFF1F881F8BBF07902B
S10D11B0F691E02D1994F894FFCF96
S9030000FC
