:100000007BC000009AC0000098C0000096C00000AD
:1000100094C0000092C0000090C000008EC000009C
:100020008CC000008AC0000088C0000086C00000AC
:1000300084C0000082C0000080C000007EC00000BC
:100040007CC000007DC4000078C0000076C00000C5
:1000500074C0000072C0000070C000006EC00000DC
:100060006CC000006AC0000068C0000066C00000EC
:1000700064C0000062C0000060C000005EC00000FC
:10008000C0C400005AC0000058C0000056C00000A4
:1000900054C0000052C0000050C000004EC000001C
:1000A0004CC000004AC0000048C0000046C000002C
:1000B00044C0000042C0000040C000003EC000003C
:1000C0003CC000003AC0000038C0000036C000004C
:1000D00034C0000032C0000030C000002EC000005C
:1000E0002CC000008C09E909D209A4090E0A4C0AA7
:1000F000460A480A4A0A440A11241FBECFEFD1E239
:10010000DEBFCDBF00E00CBF12E0A0E0B2E0E2E84D
:10011000FBE100E00BBF02C007900D92AC36B107C7
:10012000D9F727E1ACE6B2E001C01D92AB3BB207C4
:10013000E1F70E94660A0C94BF0D62CF0F921F92E6
:100140002F923F924F925F926F927F928F929F92E7
:10015000AF92BF92CF92DF92EF92FF920F931F93D5
:100160002F933F934F935F936F937F938F939F93BF
:10017000AF93BF93CF93DF93EF93FF930FB70F939B
:10018000FCB7FF93EDB7FEB7E0939917F0939A177A
:10019000E0917717F0917817EDBFFEBFFF91FCBF9C
:1001A0000F910FBFFF91EF91DF91CF91BF91AF9171
:1001B0009F918F917F916F915F914F913F912F917F
:1001C0001F910F91FF90EF90DF90CF90BF90AF9075
:1001D0009F908F907F906F905F904F903F902F9067
:1001E0001F900F9018950F921F922F923F924F924F
:1001F0005F926F927F928F929F92AF92BF92CF92B7
:10020000DF92EF92FF920F931F932F933F934F93A1
:100210005F936F937F938F939F93AF93BF93CF938E
:10022000DF93EF93FF930FB70F93FCB7FF93EDB7F7
:10023000FEB7E0937717F0937817E0919917F09154
:100240009A17EDBFFEBFFF91FCBF0F910FBFFF914B
:10025000EF91DF91CF91BF91AF919F918F917F915E
:100260006F915F914F913F912F911F910F91FF904F
:10027000EF90DF90CF90BF90AF909F908F907F9046
:100280006F905F904F903F902F901F900F90089528
:1002900064E070E084E99CE052C20895FFCF809151
:1002A0000A0590910B05892B51F0F894E0910C050B
:1002B000F0910D05E55FFE4F86E0808394CF0895B1
:1002C0008F929F92AF92BF92CF92DF92EF92FF9266
:1002D0000F931F93CF93DF931F921F92CDB7DEB77B
:1002E0009A8389835C01A4E0AA0EB11C812C992415
:1002F0009394F501D40111921197E9F7DC01AD5FF8
:10030000BE4FEFE4F1E0EC931197FC93FC01EF5F3B
:10031000FE4F10823197608331977083319710823E
:10032000B397DC011396FC93EE931297BE967183FC
:100330006083329610826091060570910705FC017A
:100340007183608389819A81FC01EB5FFE4F518349
:1003500040833296318320833F962FEF3FEF3183E6
:100360002083329611821082349711830083349750
:10037000D182C0823296F182E082209108053091CC
:1003800009052F5F3F4F3093090520930805209101
:100390000605309107052F5F3F4F309307052093E7
:1003A00006053E9721E020834330510549F442E0A1
:1003B00055E065E577E1CE0101960E947D0A1CC0FB
:1003C0004230510571F4FC01EA5EFE4F1183008357
:1003D00040E055E069E777E1CE0101960E94CF0A3F
:1003E0000BC04130510541F44EEF54E06BE977E129
:1003F000CE0101960E947D0AE981FA818081918176
:100400000F900F90DF91CF911F910F91FF90EF9080
:10041000DF90CF90BF90AF909F908F900895CF9234
:10042000DF92EF92FF920F931F93CF93DF93E90137
:1004300020910805309109052031310541F12091C5
:100440001206222371F0A4E3B7E0E1E0F0E03C9172
:10045000332349F03196AE5DBE4FE031F105B9F777
:1004600002C0E0E0F0E0670178018E019A01AB0183
:10047000BC0182E291E0E89FD001E99FB00DF89FB6
:10048000B00D1124CD01825F9A4F1ADF02C080E0C7
:1004900090E0DF91CF911F910F91FF90EF90DF904F
:1004A000CF900895109209051092080510920B053F
:1004B00010920A051092070510920605EEE0F5E08D
:1004C0002EE237E182E291E0DF01AC011D92415062
:1004D0005040E1F7DF01AC5FBE4F1C9211821082E9
:1004E000EE5DFE4FE217F30779F7AEE6B2E080E08B
:1004F00090E029E2FD01322F11923A95E9F7289F09
:10050000F001299FF00D1124E259FD4F16A201962A
:100510009183808399968031910561F70895479A78
:10052000479881E090E00E94BF0DA0910005B09136
:100530000105CD010197DAF0AA0FBB1FA758B84EED
:1005400049E757E120E030E0FE91EE91EA5EFE4F90
:1005500080819181892B11F42F5F3F4FA417B5073C
:1005600099F7223031051CF081E090E0D8CF089552
:10057000DCDF62E075E085E597E1E7D790930D0554
:1005800080930C058091000590910105892BE1F085
:1005900060E075E089E797E10E94320BFC01EA5EBA
:1005A000FE4F80819181892B79F480910C05909187
:1005B0000D05892B01F560E075E089E797E1C5D766
:1005C00090930D0580930C0580910C0590910D057D
:1005D000892B89F46EEF74E08BE997E1B6D790939D
:1005E0000D0580930C05892B31F48EE095E09093F6
:1005F0000D0580930C05E0910C05F0910D058281AD
:1006000093819093781780937717EC5FFE4F82E089
:10061000808308956F927F928F929F92AF92BF9244
:10062000CF92DF92EF92FF920F931F93CF93DF93BE
:10063000E0910A05F0910B05EF2B09F469C0F894DD
:100640006330710549F4E0910C05F0910D05E55F0B
:10065000FE4F62E0608322C06230710581F46091D8
:100660000C0570910D05FB01E55FFE4FA4E0A08332
:100670003B96B9016E0D7F1D718360830FC06130A1
:10068000710549F4E0910C05F0910D05E55FFE4F11
:1006900063E0608303C082E090E041DF60910C057D
:1006A00070910D05FB01E75FFE4F918380833297C8
:1006B0006080718051834083DB01AC5EBE4FAD90A2
:1006C000BC9011973B96C080D180605F7E4FEB015C
:1006D0008880998011963C932E9311830083F98230
:1006E000E88281DD20910C0530910D05F901E45F70
:1006F000FE4F808191813896B182A0823297D1825B
:10070000C08232979182808239977182608208C05C
:10071000EE24EA94FE2C0FEF1FEF2FEF3FEF7FDE6A
:10072000DF91CF911F910F91FF90EF90DF90CF90CD
:10073000BF90AF909F908F907F906F900895EF92B1
:10074000FF920F931F93AB01EE24EA94FE2C0FEF60
:100750001FEF2FEF3FEF63E070E05CDF1F910F9121
:10076000FF90EF900895EF92FF920F931F93AB01CC
:10077000EE24EA94FE2C0FEF1FEF2FEF3FEF61E026
:1007800070E048DF1F910F91FF90EF900895EF9276
:10079000FF920F931F937A01A8012E153F0518F0C1
:1007A00083E090E0BCDE89019A01AB0162E070E079
:1007B00031DF1F910F91FF90EF900895EF92FF921C
:1007C0000F931F9380910A0590910B05892BF1F0EF
:1007D000F89480910C0590910D05FC01E75FFE4FA8
:1007E0002EE431E031832083349724E030E03183FC
:1007F0002083329611821082F6DCE0910C05F09194
:100800000D05E45FFE4F808191810EC0EE24EA94D5
:10081000FE2C0FEF1FEF2FEF3FEF40E050E064E0C2
:1008200070E08EE491E0FBDD1F910F91FF90EF905F
:10083000089580910A0590910B05892B09F441C018
:10084000F89480910C0590910D05FC01EB5FFE4F33
:10085000208131812330310521F436968AE080836E
:100860002FC0FC01EB5FFE4F20813181223031052A
:1008700011F573964081518136972081318142175D
:10088000530718F084E090E04ADE20910205309191
:100890000305121613064CF4FC01EA5EFE4F1182AA
:1008A00010823B9785E080830BC0FC01E55FFE4F23
:1008B0008AE0808305C0FC01E55FFE4F85E0808310
:1008C00092CC0895E0910C05F0910D05E95FFE4F83
:1008D000808191810895F89410928000E1E8F0E021
:1008E0001082109285001092840080E792E090932D
:1008F0008900809388008081886080838081846003
:100900008083EFE6F0E08081826080831092900027
:10091000E1E9F0E01082109295001092940083E2D9
:1009200094EF9093990080939800808188608083F1
:1009300080818460808382E0809371007894089540
:100940001F920F920FB60F9211240BB60F922F9396
:100950003F934F935F936F937F938F939F93AF9347
:10096000BF93EF93FF9380910C0590910D05FC01CF
:10097000EB5FFE4F208131812230310531F47396D7
:1009800080819181019691838083809175179091E8
:10099000761701969093761780937517A0910005AE
:1009A000B0910105CD010197C2F0AA0FBB1FA75856
:1009B000B84E49E757E19E918E91FC01EA5EFE4FE9
:1009C00020813181121613062CF4808191810197C8
:1009D00091838083A417B50771F72BDFFF91EF9107
:1009E000BF91AF919F918F917F916F915F914F9147
:1009F0003F912F910F900BBE0F900FBE0F901F9045
:100A000018951F920F920FB60F9211248F939F93F8
:100A100080910405909105050196909305058093BA
:100A200004059F918F910F900FBE0F901F90189506
:100A300080916C0290916D024097B1F18091940287
:100A4000882371F081E090E039E2389FF001399F0E
:100A5000F00D1124E259FD4F26A1211113C002C04F
:100A600080E090E029E2289FF001299FF00D1124F9
:100A7000E259FD4F22E026A315A214A28031910570
:100A800041F415C0019680319105F9F680E090E0BF
:100A9000089529E2289FF001299FF00D1124E259C1
:100AA000FD4F80819181089580E090E0089580E07D
:100AB00090E0089520910C0530910D05F901EB5F50
:100AC000FE4F408151814230510519F485E090E09C
:100AD00026DDF901E55FFE4F47E040837196918383
:100AE00080833496718360837ECB08950F931F9328
:100AF000CF93DF9380910C0590910D05FC01E45E8E
:100B0000FE4F208131812150310949E2429FF0019D
:100B1000439FF00D1124E259FD4F24A135A1232B51
:100B200009F03DC0FC01E45EFE4F2081318121507F
:100B30003109429FF001439FF00D1124E259FD4F0E
:100B400022813381232B41F5DC01A45EBE4F2D9120
:100B50003C91119721503109429FF001439FF00DC4
:100B60001124E259FD4F93838283FC01EC5FFE4F19
:100B700023E020832D913C91215031097C96808186
:100B80009181429FF001439FF00D1124E259FD4FE6
:100B900090A787A3EDDC0DC186E090E0C0DCFC01EE
:100BA000E45EFE4F208131812150310949E2429FAC
:100BB000F001439FF00D1124E259FD4F2281338152
:100BC000232B19F086E090E0AADCFC01E45EFE4FE6
:100BD00080819181019729E2289FF001299FF00DE2
:100BE0001124E259FD4FC4A1D5A121970AF4CEC02A
:100BF00019E201E020910C0530910D05C901845ED8
:100C00009E4FDC014D915C9141505109FE0132969D
:100C1000EE0FFF1F149FD001159FB00D1124AE0FD2
:100C2000BF1FA259BD4F0D90BC91A02DAC5FBE4F10
:100C30000C93DC014D915C9141505109149FD001FE
:100C4000159FB00D1124AE0FBF1FA259BD4F6D915E
:100C50007C91A901405E5E4FDA014D915C91DB0110
:100C6000A05EBE4F4D935C93DC014D915C9111975A
:100C700041505109149FC001159F900D1124E80F98
:100C8000F91FE259FD4F0190F081E02DEB5FFE4F1F
:100C9000808191810397C1F4FD0140815181CE0192
:100CA0000296880F991F41505109149F9001159F7A
:100CB000300D1124820F931F42E055E065E577E186
:100CC00082599D4F1AD436C0F901E45EFE4F40812F
:100CD000518141505109FE013296EE0FFF1F149FC2
:100CE000C001159F900D1124E80FF91FE259FD4F27
:100CF0000190F081E02DEB5FFE4F808191810197A3
:100D0000C9F4F901E45EFE4F40815181CE010296A3
:100D1000880F991F41505109149F9001159F300D64
:100D20001124820F931F4EEF54E06BE977E1825953
:100D30009D4FE3D3A0910C05B0910D05A45EBE4F6D
:100D40002D913C91119721503109FE013296EE0F01
:100D5000FF1F129FC001139F900D1124E80FF91F70
:100D6000E259FD4F118210828D919C910197189F3D
:100D7000F001199FF00D1124E259FD4F84A195A1B6
:100D8000019795A384A321970AF034CFE0910C0535
:100D9000F0910D05E45EFE4F80819181019729E27B
:100DA000289FF001299FF00D1124E259FD4F10A654
:100DB00017A2DF91CF911F910F91089520910C05FB
:100DC00030910D05F901EB5FFE4F408151814230BA
:100DD000510519F485E090E0A2DBF901E55FFE4FD3
:100DE00049E04083739691838083FDD9E0910C059F
:100DF000F0910D05E05EFE4F808191810895809114
:100E00000C0590910D05FC01E25EFE4F20813181C1
:100E10002150310949E2429FF001439FF00D112416
:100E2000E259FD4F22813381232B09F5FC01EC5F50
:100E3000FE4F23E020837A96208131818081918149
:100E400021503109E9E2E29FA001E39F500D1124F6
:100E50004E565D4F0197E89FB001E99F700D112438
:100E60006E587D4F8CE095E048D382CB0895FC010D
:100E7000E25EFE4F208131812150310949E2429FDB
:100E8000D001439FB00D1124A259BD4F12960D9071
:100E9000BC91A02DAC5FBE4F21E02C93208131810D
:100EA00021503109429FD001439FB00D1124A25916
:100EB000BD4F97962D913C919897DC01A05EBE4F57
:100EC00011963C932E932081318121503109429F0C
:100ED000F001439FF00D1124E259FD4F0280F38190
:100EE000E02DEB5FFE4F2081318123303105A1F4ED
:100EF000FC01E25EFE4F2081318121503109429F89
:100F0000C001439F900D112442E055E065E577E173
:100F100080599D4FF2D22CC0FC01E25EFE4F208131
:100F200031812150310949E2429FF001439FF00D88
:100F30001124E259FD4F0280F381E02DEB5FFE4F5B
:100F4000208131812130310599F4FC01E25EFE4FB0
:100F50002081318121503109429FC001439F900D72
:100F600011244EEF54E06BE977E180599D4FC5D2D3
:100F700080910C0590910D05FC01E25EFE4F2081F1
:100F800031812150310949E2429FF001439FF00D28
:100F90001124E259FD4F13821282FC01E45EFE4FE0
:100FA000808191810197489FF001499FF00D1124A4
:100FB000E259FD4F10A617A2089520910C0530911B
:100FC0000D05F901E55FFE4F48E04083719691837E
:100FD000808334967183608306C908950F931F93AD
:100FE000CF93DF9380910C0590910D05FC01E45E99
:100FF000FE4F208131812150310949E2429FF001A9
:10100000439FF00D1124E259FD4F24A135A1232B5C
:1010100031F5FC01E45EFE4F208131812150310920
:10102000429FF001439FF00D1124E259FD4F2281B0
:101030003381232B89F4FC01E45EFE4F2081318152
:1010400021503109429FF001439FF00D1124E259D4
:10105000FD4F938382830DC186E090E060DAFC014E
:10106000E45EFE4F208131812150310949E2429FE7
:10107000F001439FF00D1124E259FD4F228133818D
:10108000232B19F086E090E04ADAFC01E45EFE4F83
:1010900080819181019729E2289FF001299FF00D1D
:1010A0001124E259FD4FC4A1D5A121970AF4CEC065
:1010B00019E201E020910C0530910D05C901845E13
:1010C0009E4FDC014D915C9141505109FE013296D9
:1010D000EE0FFF1F149FD001159FB00D1124AE0F0E
:1010E000BF1FA259BD4F0D90BC91A02DAC5FBE4F4C
:1010F0000C93DC014D915C9141505109149FD0013A
:10110000159FB00D1124AE0FBF1FA259BD4F6D9199
:101110007C91A901405E5E4FDA014D915C91DB014B
:10112000A05EBE4F4D935C93DC014D915C91119795
:1011300041505109149FC001159F900D1124E80FD3
:10114000F91FE259FD4F0190F081E02DEB5FFE4F5A
:10115000808191810397C1F4FD0140815181CE01CD
:101160000296880F991F41505109149F9001159FB5
:10117000300D1124820F931F42E055E065E577E1C1
:1011800082599D4FBAD136C0F901E45EFE4F4081CD
:10119000518141505109FE013296EE0FFF1F149FFD
:1011A000C001159F900D1124E80FF91FE259FD4F62
:1011B0000190F081E02DEB5FFE4F808191810197DE
:1011C000C9F4F901E45EFE4F40815181CE010296DF
:1011D000880F991F41505109149F9001159F300DA0
:1011E0001124820F931F4EEF54E06BE977E182598F
:1011F0009D4F83D1A0910C05B0910D05A45EBE4F0B
:101200002D913C91119721503109FE013296EE0F3C
:10121000FF1F129FC001139F900D1124E80FF91FAB
:10122000E259FD4F118210828D919C910197189F78
:10123000F001199FF00D1124E259FD4F84A195A1F1
:10124000019795A384A321970AF034CFE0910C0570
:10125000F0910D05E45EFE4F80819181019729E2B6
:10126000289FF001299FF00D1124E259FD4F10A68F
:1012700017A2DF91CF911F910F910895CF92DF9226
:10128000EF92FF920F931F93CF93DF9380910A0504
:1012900090910B05892B09F010C180910805909160
:1012A0000905892B09F409C1F89481E090E0909335
:1012B0000B0580930A055CD9DD24D3940F2EF5E04D
:1012C000CF2EF02DE0910C05F0910D05DF01A55F0B
:1012D000BE4F1C92828193819093781780937717E9
:1012E0000E949E00C0910C05D0910D05809177174A
:1012F000909178179B838A83FE01E55FFE4FE08122
:101300008E2F90E0FC013197EA30F105D8F688275E
:10131000EE58FF4F8F4FDAC3FE01E95FFE4F408169
:101320005181329760817181349680819181EE2460
:10133000EA94FE2C0FEF1FEF2FEF3FEF70D8C45F42
:10134000DE4F99838883BECFFE01E05FFE4FE080D1
:10135000F1803296008111813296208131813D9752
:101360004081518132968081918162E070E057D84E
:10137000C45FDE4F9983888380910C0590910D05A1
:10138000FC01EB5FFE4F208131812130310509F0F6
:1013900099CF3F9620813181232B09F093CF399744
:1013A000C0823CC0FE01E95FFE4F40815181329610
:1013B00080819181EE24EA94FE2C0FEF1FEF2FEF36
:1013C0003FEF61E070E02BD8C45FDE4F99838883E4
:1013D00079CFFE01E95FFE4F4081518132968081D5
:1013E0009181EE24EA94FE2C0FEF1FEF2FEF3FEFD9
:1013F00063E070E014D8C45FDE4F998388838091E6
:101400000C0590910D05FC01EB5FFE4F20813181B1
:101410002330310509F456CF3696C08280910C05F1
:1014200090910D05FC01EC5FFE4FD082319620813A
:1014300031812330310541F442E055E065E577E143
:101440008CE095E05AD01EC0FC01EB5FFE4F20817E
:1014500031812230310541F440E055E069E777E120
:101460008CE095E09CD00EC0FC01EB5FFE4F8081CC
:101470009181019739F44EEF54E06BE977E18CE00C
:1014800095E03BD075D81ECF50D81CCF2FDB1ACF9C
:10149000A5DD18CFB4DC16CFFE01EC5FFE4F108245
:1014A00019821882809108059091090501979093FF
:1014B0000905809308055CD805CFDF91CF911F9176
:1014C0000F91FF90EF90DF90CF9008950B9A1398B3
:1014D0000C9A14980D9A15980E9A16980F9A1798B8
:1014E0003F9A4798F8D90E94520268D96AE270E0A0
:1014F00088E491E024D9C2CE0895CF93DF93EA0126
:10150000288139812F303105E9F0E881F9819F0187
:101510002150310962F0EE0FFF1FE60FF71FDB01CC
:101520003291229133832283EA17FB07C9F7FC012A
:1015300080819181FB0191838083888199810196CB
:1015400099838883DF91CF910895AC01DB018D9160
:101550009C911197892B01F1ED91FC911197E1502C
:10156000F048EE0FFF1FE40FF51F808191812D9150
:101570003C911197F901E150F048EE0FFF1FE40F85
:10158000F51F118210822D913C9111972150310944
:1015900011963C932E93089580E090E00895CF92A9
:1015A000DF92EF92FF920F931F93CF93DF936A0125
:1015B000EA01288139812F30310509F44AC0288198
:1015C000398121503109FC0100811181F901EE0FAF
:1015D000FF1FDB01AE0FBF1F4D915C9133233CF128
:1015E000D801AA5EBE4FED90FC90DA01AA5EBE4F14
:1015F0004D915C91E416F506D4F0E60FF71F0A5EF4
:101600001E4FA081B181B383A28321503109B291D1
:10161000A2912F3F4FEF340751F0E801E880F980A5
:10162000AA5EBE4F4D915C91E416F50654F7FC019D
:10163000808191812F5F3F4F220F331FFB01E20F0B
:10164000F31F91838083E6018881998101969983B4
:101650008883DF91CF911F910F91FF90EF90DF90E2
:10166000CF900895FB0120813181232B61F02081EF
:101670003181F901E150F048EE0FFF1FE80FF91F2B
:1016800080819181089580E090E008951BD94AE01F
:1016900050E062E377E136D262E377E187E397E1F6
:1016A000E4D110D990932F1780932E170BD9BC013A
:1016B000809100029091010280DC04D94AE050E060
:1016C00062E377E11FD262E377E187E397E1CDC17F
:1016D0000895F8D84AE050E062E377E113D262E37C
:1016E00077E187E397E1C1D180913017909131176D
:1016F0009C01215031092230310540F0039759F403
:101700008091000290910102019629F491D9909361
:1017100001028093000280910002909101024EDB51
:1017200020912E1730912F178217930759F4CAD89A
:101730004AE050E062E377E1E5D162E377E187E3F5
:1017400097E193C10895BED84AE050E062E377E1A3
:10175000D9D162E377E187E397E187D180913017B0
:10176000909131179C01215031092230310590F0C0
:101770008330910539F48091000290910102019625
:1017800071F408C0049759F480910002909101020D
:10179000019629F44DD99093010280930002809123
:1017A0000002909101020ADB20912E1730912F1731
:1017B0008217930759F486D84AE050E062E377E154
:1017C000A1D162E377E187E397E14FC108957AD829
:1017D0004AE050E062E377E195D162E377E187E3A5
:1017E00097E143D16FD890932F1780932E176AD823
:1017F000BC0180910002909101025CD963D84AE05B
:1018000050E062E377E17ED162E377E187E397E13D
:101810002CC1089557D84AE050E062E377E172D1D5
:1018200062E377E187E397E120D1809130179091CF
:101830003117892B29F4FCD8909301028093000280
:1018400041D890932F1780932E173CD8BC018091DC
:101850000002909101022ED935D84AE050E062E3AF
:1018600077E150D162E377E187E397E1FEC0089525
:10187000809130179091311781309105C9F01CF497
:10188000892B39F042C08230910509F1039771F13B
:101890003CC062E072E087E397E12BD1892B21F411
:1018A00087E092E0F3C0089585E292E0EFC00895EA
:1018B00063E472E087E397E11CD1892B21F487E090
:1018C00092E0E4C0089585E292E0E0C0089568E403
:1018D00072E087E397E10DD1892B21F487E092E054
:1018E000D5C0089585E292E0D1C008956DE472E01C
:1018F00087E397E1FED0892B21F487E092E0C6C010
:10190000089585E292E0C2C0089566E572E087E33B
:1019100097E1EFD0892B21F487E092E0B7C00895DA
:1019200085E292E0B3C008950F931F93A2D00E9466
:101930006204909331178093301781309105E9F05C
:101940001CF4892B39F05EC08230910549F1039770
:10195000D1F158C061E070E08AE09CE00E949F03F2
:1019600062E070E083EA9BE00E949F0360E070E029
:1019700088E39CE00E94B30375C063E070E083EAF3
:101980009BE00E949F0364E070E08AE09CE00E947C
:101990009F0360E070E088E39CE00E94B30362C0B4
:1019A00065E070E083EA9BE00E949F0366E070E0E0
:1019B00087EE9BE00E94B30360E070E088E39CE068
:1019C0000E94B3034FC066E070E083EA9BE00E9490
:1019D0009F0367E070E083EA9BE00E949F0368E05A
:1019E00070E083EA9BE00E949F0369E070E08AE078
:1019F0009CE00E949F0360E070E088E39CE00E940E
:101A0000B30330C06AE070E083EA9BE00E949F036A
:101A10006BE070E083EA9BE00E949F036CE070E063
:101A200089E69BE00E94B3036DE070E089E69BE0ED
:101A30000E94B30303E010E022E030E045E050E014
:101A40006EE070E086E49BE00E94C70309E010E0CE
:101A500021E030E04AE050E060E070E088E39CE0A4
:101A60000E94C7031F910F910895F89437D078947E
:101A70000895F894E1ECF0E080818861808387E646
:101A80008093C4001092C50078940895CF93DF939B
:101A9000F894FC012081222369F0DC011196E0EC2E
:101AA000F0E0C6ECD0E0908195FFFDCF28832D912A
:101AB0002111F9CFE0ECF0E0808185FFFDCF8AE0D5
:101AC0008093C6007894DF91CF910895EE0FFF1FA9
:101AD000881F8BBF0790F691E02D1994FB01DC0164
:101AE0000D900020E9F7119701900D920020E1F789
:101AF0000895FB01DC018D91019080190110D9F34B
:101B0000990B08954532510518F4423008F004C08D
:101B1000FB011082CB010895BB274A3031F4992391
:101B200022F4BDE2909581959F4F01C0BB27FB0138
:101B30005527AA27880F991FAA1FA41710F0A41BC6
:101B400083955051B9F7A05DAA3308F0A95DA19320
:101B5000009779F7B111B1931192CB0100C0DC016C
:101B6000FC01672F71917723E1F7329704C07C91D4
:101B70006D9370836291AE17BF07C8F30895F89410
:021B8000FFCF95
:101B8200FFFF3132323100746573745F6368616ED6
:101B92005F73656E645F7265636965766520504147
:101BA2005353454400746573745F6368616E5F7379
:101BB200656E645F72656369657665204641494C6E
:101BC2004544003334343300353636350036373841
:101BD20039393637380031303131313231333134FD
:0C1BE20031343130313131323133000008
:00000001FF
